{
  "address": "0x3E4404d874fa73659cCfFc21Ac4839EcA21F0b4c",
  "abi": [
    {
      "inputs": [
        {
          "internalType": "address",
          "name": "_communityAddress",
          "type": "address"
        },
        {
          "internalType": "uint8",
          "name": "_chainId",
          "type": "uint8"
        },
        {
          "internalType": "address",
          "name": "_trustedForwarder",
          "type": "address"
        }
      ],
      "stateMutability": "nonpayable",
      "type": "constructor"
    },
    {
      "inputs": [],
      "name": "Empty",
      "type": "error"
    },
    {
      "anonymous": false,
      "inputs": [
        {
          "indexed": false,
          "internalType": "uint256",
          "name": "proposalId",
          "type": "uint256"
        }
      ],
      "name": "ProposalCanceled",
      "type": "event"
    },
    {
      "anonymous": false,
      "inputs": [
        {
          "indexed": false,
          "internalType": "uint256",
          "name": "proposalId",
          "type": "uint256"
        },
        {
          "indexed": false,
          "internalType": "address",
          "name": "proposer",
          "type": "address"
        },
        {
          "indexed": false,
          "internalType": "address[]",
          "name": "targets",
          "type": "address[]"
        },
        {
          "indexed": false,
          "internalType": "uint256[]",
          "name": "values",
          "type": "uint256[]"
        },
        {
          "indexed": false,
          "internalType": "string[]",
          "name": "signatures",
          "type": "string[]"
        },
        {
          "indexed": false,
          "internalType": "bytes[]",
          "name": "calldatas",
          "type": "bytes[]"
        },
        {
          "indexed": false,
          "internalType": "uint256",
          "name": "startBlock",
          "type": "uint256"
        },
        {
          "indexed": false,
          "internalType": "uint256",
          "name": "endBlock",
          "type": "uint256"
        },
        {
          "indexed": false,
          "internalType": "string",
          "name": "description",
          "type": "string"
        }
      ],
      "name": "ProposalCreated",
      "type": "event"
    },
    {
      "anonymous": false,
      "inputs": [
        {
          "indexed": false,
          "internalType": "uint256",
          "name": "proposalId",
          "type": "uint256"
        }
      ],
      "name": "ProposalExecuted",
      "type": "event"
    },
    {
      "anonymous": false,
      "inputs": [
        {
          "indexed": true,
          "internalType": "address",
          "name": "voter",
          "type": "address"
        },
        {
          "indexed": false,
          "internalType": "uint256",
          "name": "proposalId",
          "type": "uint256"
        },
        {
          "indexed": false,
          "internalType": "uint8",
          "name": "support",
          "type": "uint8"
        },
        {
          "indexed": false,
          "internalType": "uint256",
          "name": "weight",
          "type": "uint256"
        },
        {
          "indexed": false,
          "internalType": "string",
          "name": "reason",
          "type": "string"
        }
      ],
      "name": "VoteCast",
      "type": "event"
    },
    {
      "anonymous": false,
      "inputs": [
        {
          "indexed": true,
          "internalType": "address",
          "name": "voter",
          "type": "address"
        },
        {
          "indexed": false,
          "internalType": "uint256",
          "name": "proposalId",
          "type": "uint256"
        },
        {
          "indexed": false,
          "internalType": "uint8",
          "name": "support",
          "type": "uint8"
        },
        {
          "indexed": false,
          "internalType": "uint256",
          "name": "weight",
          "type": "uint256"
        },
        {
          "indexed": false,
          "internalType": "string",
          "name": "reason",
          "type": "string"
        },
        {
          "indexed": false,
          "internalType": "bytes",
          "name": "params",
          "type": "bytes"
        }
      ],
      "name": "VoteCastWithParams",
      "type": "event"
    },
    {
      "inputs": [],
      "name": "BALLOT_TYPEHASH",
      "outputs": [
        {
          "internalType": "bytes32",
          "name": "",
          "type": "bytes32"
        }
      ],
      "stateMutability": "view",
      "type": "function"
    },
    {
      "inputs": [],
      "name": "COUNTING_MODE",
      "outputs": [
        {
          "internalType": "string",
          "name": "",
          "type": "string"
        }
      ],
      "stateMutability": "pure",
      "type": "function"
    },
    {
      "inputs": [],
      "name": "EXTENDED_BALLOT_TYPEHASH",
      "outputs": [
        {
          "internalType": "bytes32",
          "name": "",
          "type": "bytes32"
        }
      ],
      "stateMutability": "view",
      "type": "function"
    },
    {
      "inputs": [
        {
          "internalType": "uint256",
          "name": "proposalId",
          "type": "uint256"
        }
      ],
      "name": "cancel",
      "outputs": [],
      "stateMutability": "nonpayable",
      "type": "function"
    },
    {
      "inputs": [
        {
          "internalType": "uint256",
          "name": "proposalId",
          "type": "uint256"
        },
        {
          "internalType": "uint8",
          "name": "support",
          "type": "uint8"
        }
      ],
      "name": "castVote",
      "outputs": [
        {
          "internalType": "uint256",
          "name": "",
          "type": "uint256"
        }
      ],
      "stateMutability": "nonpayable",
      "type": "function"
    },
    {
      "inputs": [
        {
          "internalType": "uint256",
          "name": "proposalId",
          "type": "uint256"
        },
        {
          "internalType": "uint8",
          "name": "support",
          "type": "uint8"
        },
        {
          "internalType": "uint8",
          "name": "v",
          "type": "uint8"
        },
        {
          "internalType": "bytes32",
          "name": "r",
          "type": "bytes32"
        },
        {
          "internalType": "bytes32",
          "name": "s",
          "type": "bytes32"
        }
      ],
      "name": "castVoteBySig",
      "outputs": [
        {
          "internalType": "uint256",
          "name": "",
          "type": "uint256"
        }
      ],
      "stateMutability": "nonpayable",
      "type": "function"
    },
    {
      "inputs": [
        {
          "internalType": "uint256",
          "name": "proposalId",
          "type": "uint256"
        },
        {
          "internalType": "uint8",
          "name": "support",
          "type": "uint8"
        },
        {
          "internalType": "string",
          "name": "reason",
          "type": "string"
        }
      ],
      "name": "castVoteWithReason",
      "outputs": [
        {
          "internalType": "uint256",
          "name": "",
          "type": "uint256"
        }
      ],
      "stateMutability": "nonpayable",
      "type": "function"
    },
    {
      "inputs": [
        {
          "internalType": "uint256",
          "name": "proposalId",
          "type": "uint256"
        },
        {
          "internalType": "uint8",
          "name": "support",
          "type": "uint8"
        },
        {
          "internalType": "string",
          "name": "reason",
          "type": "string"
        },
        {
          "internalType": "bytes",
          "name": "params",
          "type": "bytes"
        }
      ],
      "name": "castVoteWithReasonAndParams",
      "outputs": [
        {
          "internalType": "uint256",
          "name": "",
          "type": "uint256"
        }
      ],
      "stateMutability": "nonpayable",
      "type": "function"
    },
    {
      "inputs": [
        {
          "internalType": "uint256",
          "name": "proposalId",
          "type": "uint256"
        },
        {
          "internalType": "uint8",
          "name": "support",
          "type": "uint8"
        },
        {
          "internalType": "string",
          "name": "reason",
          "type": "string"
        },
        {
          "internalType": "bytes",
          "name": "params",
          "type": "bytes"
        },
        {
          "internalType": "uint8",
          "name": "v",
          "type": "uint8"
        },
        {
          "internalType": "bytes32",
          "name": "r",
          "type": "bytes32"
        },
        {
          "internalType": "bytes32",
          "name": "s",
          "type": "bytes32"
        }
      ],
      "name": "castVoteWithReasonAndParamsBySig",
      "outputs": [
        {
          "internalType": "uint256",
          "name": "",
          "type": "uint256"
        }
      ],
      "stateMutability": "nonpayable",
      "type": "function"
    },
    {
      "inputs": [],
      "name": "community",
      "outputs": [
        {
          "internalType": "address",
          "name": "contractAddress",
          "type": "address"
        },
        {
          "internalType": "uint8",
          "name": "chainId",
          "type": "uint8"
        }
      ],
      "stateMutability": "view",
      "type": "function"
    },
    {
      "inputs": [
        {
          "internalType": "address[]",
          "name": "targets",
          "type": "address[]"
        },
        {
          "internalType": "uint256[]",
          "name": "values",
          "type": "uint256[]"
        },
        {
          "internalType": "bytes[]",
          "name": "calldatas",
          "type": "bytes[]"
        },
        {
          "internalType": "bytes32",
          "name": "descriptionHash",
          "type": "bytes32"
        }
      ],
      "name": "execute",
      "outputs": [
        {
          "internalType": "uint256",
          "name": "",
          "type": "uint256"
        }
      ],
      "stateMutability": "payable",
      "type": "function"
    },
    {
      "inputs": [
        {
          "internalType": "uint256",
          "name": "proposalId",
          "type": "uint256"
        }
      ],
      "name": "execute",
      "outputs": [],
      "stateMutability": "payable",
      "type": "function"
    },
    {
      "inputs": [
        {
          "internalType": "uint256",
          "name": "proposalId",
          "type": "uint256"
        }
      ],
      "name": "getActions",
      "outputs": [
        {
          "internalType": "address[]",
          "name": "targets",
          "type": "address[]"
        },
        {
          "internalType": "uint256[]",
          "name": "values",
          "type": "uint256[]"
        },
        {
          "internalType": "string[]",
          "name": "signatures",
          "type": "string[]"
        },
        {
          "internalType": "bytes[]",
          "name": "calldatas",
          "type": "bytes[]"
        }
      ],
      "stateMutability": "view",
      "type": "function"
    },
    {
      "inputs": [
        {
          "internalType": "uint256",
          "name": "proposalId",
          "type": "uint256"
        },
        {
          "internalType": "address",
          "name": "voter",
          "type": "address"
        }
      ],
      "name": "getReceipt",
      "outputs": [
        {
          "components": [
            {
              "internalType": "bool",
              "name": "hasVoted",
              "type": "bool"
            },
            {
              "internalType": "uint8",
              "name": "support",
              "type": "uint8"
            },
            {
              "internalType": "uint96",
              "name": "votes",
              "type": "uint96"
            },
            {
              "internalType": "uint256",
              "name": "tokenId",
              "type": "uint256"
            }
          ],
          "internalType": "struct IGovernorCompatibilityNFTGlobalEntry.Receipt",
          "name": "",
          "type": "tuple"
        }
      ],
      "stateMutability": "view",
      "type": "function"
    },
    {
      "inputs": [
        {
          "internalType": "address",
          "name": "account",
          "type": "address"
        },
        {
          "internalType": "uint256",
          "name": "blockNumber",
          "type": "uint256"
        }
      ],
      "name": "getVotes",
      "outputs": [
        {
          "internalType": "uint256",
          "name": "",
          "type": "uint256"
        }
      ],
      "stateMutability": "view",
      "type": "function"
    },
    {
      "inputs": [
        {
          "internalType": "address",
          "name": "account",
          "type": "address"
        },
        {
          "internalType": "uint256",
          "name": "blockNumber",
          "type": "uint256"
        },
        {
          "internalType": "bytes",
          "name": "params",
          "type": "bytes"
        }
      ],
      "name": "getVotesWithParams",
      "outputs": [
        {
          "internalType": "uint256",
          "name": "",
          "type": "uint256"
        }
      ],
      "stateMutability": "view",
      "type": "function"
    },
    {
      "inputs": [
        {
          "internalType": "uint256",
          "name": "proposalId",
          "type": "uint256"
        },
        {
          "internalType": "address",
          "name": "account",
          "type": "address"
        }
      ],
      "name": "hasVoted",
      "outputs": [
        {
          "internalType": "bool",
          "name": "",
          "type": "bool"
        }
      ],
      "stateMutability": "view",
      "type": "function"
    },
    {
      "inputs": [
        {
          "internalType": "address[]",
          "name": "targets",
          "type": "address[]"
        },
        {
          "internalType": "uint256[]",
          "name": "values",
          "type": "uint256[]"
        },
        {
          "internalType": "bytes[]",
          "name": "calldatas",
          "type": "bytes[]"
        },
        {
          "internalType": "bytes32",
          "name": "descriptionHash",
          "type": "bytes32"
        }
      ],
      "name": "hashProposal",
      "outputs": [
        {
          "internalType": "uint256",
          "name": "",
          "type": "uint256"
        }
      ],
      "stateMutability": "pure",
      "type": "function"
    },
    {
      "inputs": [
        {
          "internalType": "address",
          "name": "forwarder",
          "type": "address"
        }
      ],
      "name": "isTrustedForwarder",
      "outputs": [
        {
          "internalType": "bool",
          "name": "",
          "type": "bool"
        }
      ],
      "stateMutability": "view",
      "type": "function"
    },
    {
      "inputs": [],
      "name": "name",
      "outputs": [
        {
          "internalType": "string",
          "name": "",
          "type": "string"
        }
      ],
      "stateMutability": "view",
      "type": "function"
    },
    {
      "inputs": [
        {
          "internalType": "address",
          "name": "",
          "type": "address"
        },
        {
          "internalType": "address",
          "name": "",
          "type": "address"
        },
        {
          "internalType": "uint256[]",
          "name": "",
          "type": "uint256[]"
        },
        {
          "internalType": "uint256[]",
          "name": "",
          "type": "uint256[]"
        },
        {
          "internalType": "bytes",
          "name": "",
          "type": "bytes"
        }
      ],
      "name": "onERC1155BatchReceived",
      "outputs": [
        {
          "internalType": "bytes4",
          "name": "",
          "type": "bytes4"
        }
      ],
      "stateMutability": "nonpayable",
      "type": "function"
    },
    {
      "inputs": [
        {
          "internalType": "address",
          "name": "",
          "type": "address"
        },
        {
          "internalType": "address",
          "name": "",
          "type": "address"
        },
        {
          "internalType": "uint256",
          "name": "",
          "type": "uint256"
        },
        {
          "internalType": "uint256",
          "name": "",
          "type": "uint256"
        },
        {
          "internalType": "bytes",
          "name": "",
          "type": "bytes"
        }
      ],
      "name": "onERC1155Received",
      "outputs": [
        {
          "internalType": "bytes4",
          "name": "",
          "type": "bytes4"
        }
      ],
      "stateMutability": "nonpayable",
      "type": "function"
    },
    {
      "inputs": [
        {
          "internalType": "address",
          "name": "",
          "type": "address"
        },
        {
          "internalType": "address",
          "name": "",
          "type": "address"
        },
        {
          "internalType": "uint256",
          "name": "",
          "type": "uint256"
        },
        {
          "internalType": "bytes",
          "name": "",
          "type": "bytes"
        }
      ],
      "name": "onERC721Received",
      "outputs": [
        {
          "internalType": "bytes4",
          "name": "",
          "type": "bytes4"
        }
      ],
      "stateMutability": "nonpayable",
      "type": "function"
    },
    {
      "inputs": [],
      "name": "owner",
      "outputs": [
        {
          "internalType": "address",
          "name": "",
          "type": "address"
        }
      ],
      "stateMutability": "view",
      "type": "function"
    },
    {
      "inputs": [
        {
          "internalType": "uint256",
          "name": "proposalId",
          "type": "uint256"
        }
      ],
      "name": "proposalDeadline",
      "outputs": [
        {
          "internalType": "uint256",
          "name": "",
          "type": "uint256"
        }
      ],
      "stateMutability": "view",
      "type": "function"
    },
    {
      "inputs": [
        {
          "internalType": "uint256",
          "name": "proposalId",
          "type": "uint256"
        }
      ],
      "name": "proposalSnapshot",
      "outputs": [
        {
          "internalType": "uint256",
          "name": "",
          "type": "uint256"
        }
      ],
      "stateMutability": "view",
      "type": "function"
    },
    {
      "inputs": [],
      "name": "proposalThreshold",
      "outputs": [
        {
          "internalType": "uint256",
          "name": "",
          "type": "uint256"
        }
      ],
      "stateMutability": "pure",
      "type": "function"
    },
    {
      "inputs": [
        {
          "internalType": "uint256",
          "name": "proposalId",
          "type": "uint256"
        }
      ],
      "name": "proposals",
      "outputs": [
        {
          "internalType": "uint256",
          "name": "id",
          "type": "uint256"
        },
        {
          "internalType": "address",
          "name": "proposer",
          "type": "address"
        },
        {
          "internalType": "uint256",
          "name": "eta",
          "type": "uint256"
        },
        {
          "internalType": "uint256",
          "name": "startBlock",
          "type": "uint256"
        },
        {
          "internalType": "uint256",
          "name": "endBlock",
          "type": "uint256"
        },
        {
          "internalType": "uint256",
          "name": "forVotes",
          "type": "uint256"
        },
        {
          "internalType": "uint256",
          "name": "againstVotes",
          "type": "uint256"
        },
        {
          "internalType": "uint256",
          "name": "abstainVotes",
          "type": "uint256"
        },
        {
          "internalType": "bool",
          "name": "canceled",
          "type": "bool"
        },
        {
          "internalType": "bool",
          "name": "executed",
          "type": "bool"
        }
      ],
      "stateMutability": "view",
      "type": "function"
    },
    {
      "inputs": [
        {
          "internalType": "address[]",
          "name": "targets",
          "type": "address[]"
        },
        {
          "internalType": "uint256[]",
          "name": "values",
          "type": "uint256[]"
        },
        {
          "internalType": "bytes[]",
          "name": "calldatas",
          "type": "bytes[]"
        },
        {
          "internalType": "string",
          "name": "description",
          "type": "string"
        }
      ],
      "name": "propose",
      "outputs": [
        {
          "internalType": "uint256",
          "name": "",
          "type": "uint256"
        }
      ],
      "stateMutability": "nonpayable",
      "type": "function"
    },
    {
      "inputs": [
        {
          "internalType": "address[]",
          "name": "targets",
          "type": "address[]"
        },
        {
          "internalType": "uint256[]",
          "name": "values",
          "type": "uint256[]"
        },
        {
          "internalType": "string[]",
          "name": "signatures",
          "type": "string[]"
        },
        {
          "internalType": "bytes[]",
          "name": "calldatas",
          "type": "bytes[]"
        },
        {
          "internalType": "string",
          "name": "description",
          "type": "string"
        }
      ],
      "name": "propose",
      "outputs": [
        {
          "internalType": "uint256",
          "name": "",
          "type": "uint256"
        }
      ],
      "stateMutability": "nonpayable",
      "type": "function"
    },
    {
      "inputs": [
        {
          "internalType": "uint256",
          "name": "proposalId",
          "type": "uint256"
        }
      ],
      "name": "queue",
      "outputs": [],
      "stateMutability": "nonpayable",
      "type": "function"
    },
    {
      "inputs": [
        {
          "internalType": "uint256",
          "name": "blockNumber",
          "type": "uint256"
        }
      ],
      "name": "quorum",
      "outputs": [
        {
          "internalType": "uint256",
          "name": "",
          "type": "uint256"
        }
      ],
      "stateMutability": "view",
      "type": "function"
    },
    {
      "inputs": [],
      "name": "quorumVotes",
      "outputs": [
        {
          "internalType": "uint256",
          "name": "",
          "type": "uint256"
        }
      ],
      "stateMutability": "view",
      "type": "function"
    },
    {
      "inputs": [
        {
          "internalType": "address",
          "name": "target",
          "type": "address"
        },
        {
          "internalType": "uint256",
          "name": "value",
          "type": "uint256"
        },
        {
          "internalType": "bytes",
          "name": "data",
          "type": "bytes"
        }
      ],
      "name": "relay",
      "outputs": [],
      "stateMutability": "payable",
      "type": "function"
    },
    {
      "inputs": [
        {
          "internalType": "address",
          "name": "trustedForwarder",
          "type": "address"
        }
      ],
      "name": "setTrustedForwarder",
      "outputs": [],
      "stateMutability": "nonpayable",
      "type": "function"
    },
    {
      "inputs": [
        {
          "internalType": "uint256",
          "name": "proposalId",
          "type": "uint256"
        }
      ],
      "name": "state",
      "outputs": [
        {
          "internalType": "enum IGovernor.ProposalState",
          "name": "",
          "type": "uint8"
        }
      ],
      "stateMutability": "view",
      "type": "function"
    },
    {
      "inputs": [
        {
          "internalType": "bytes4",
          "name": "interfaceId",
          "type": "bytes4"
        }
      ],
      "name": "supportsInterface",
      "outputs": [
        {
          "internalType": "bool",
          "name": "",
          "type": "bool"
        }
      ],
      "stateMutability": "view",
      "type": "function"
    },
    {
      "inputs": [],
      "name": "version",
      "outputs": [
        {
          "internalType": "string",
          "name": "",
          "type": "string"
        }
      ],
      "stateMutability": "view",
      "type": "function"
    },
    {
      "inputs": [],
      "name": "votingDelay",
      "outputs": [
        {
          "internalType": "uint256",
          "name": "",
          "type": "uint256"
        }
      ],
      "stateMutability": "pure",
      "type": "function"
    },
    {
      "inputs": [],
      "name": "votingPeriod",
      "outputs": [
        {
          "internalType": "uint256",
          "name": "",
          "type": "uint256"
        }
      ],
      "stateMutability": "pure",
      "type": "function"
    },
    {
      "stateMutability": "payable",
      "type": "receive"
    }
  ],
  "transactionHash": "0xb7855b9b83f9ba73f4e1c6fe3494eb40e20f3b9fff4d89b8dcbc3fc2561b4f28",
  "args": [
    "0x3193046D450Dade9ca17F88db4A72230140E64dC",
    "1",
    "0x9bbb4217115B7296630183Bb23703DEC93E8edCf"
  ],
  "numDeployments": 1,
  "solcInputHash": "ea24568118398669af4f87fa44dc665d",
  "bytecode": "0x6101406040523480156200001257600080fd5b50604051620042b5380380620042b58339810160408190526200003591620001ac565b60408051808201909152600b81526a27232a23b7bb32b93737b960a91b6020820152819080620000796040805180820190915260018152603160f81b602082015290565b60018054336001600160a01b031991821617909155600080549091166001600160a01b038616179055815160209283012081519183019190912060e08290526101008190524660a0818152604080517f8b73c3c69bb8fe3d512ecc4cf759cc79239f7b179b0ffacaa9a75d522b39400f818801819052818301969096526060810194909452608080850193909352308483018190528151808603909301835260c0948501909152815191909501209052919091526101205260026200013f8282620002a2565b5050604080518082019091526001600160a01b0390941680855260ff9093166020909401849052505060078054600160a01b9093026001600160a81b03199093169091179190911790556200036e565b80516001600160a01b0381168114620001a757600080fd5b919050565b600080600060608486031215620001c257600080fd5b620001cd846200018f565b9250602084015160ff81168114620001e457600080fd5b9150620001f4604085016200018f565b90509250925092565b634e487b7160e01b600052604160045260246000fd5b600181811c908216806200022857607f821691505b6020821081036200024957634e487b7160e01b600052602260045260246000fd5b50919050565b601f8211156200029d57600081815260208120601f850160051c81016020861015620002785750805b601f850160051c820191505b81811015620002995782815560010162000284565b5050505b505050565b81516001600160401b03811115620002be57620002be620001fd565b620002d681620002cf845462000213565b846200024f565b602080601f8311600181146200030e5760008415620002f55750858301515b600019600386901b1c1916600185901b17855562000299565b600085815260208120601f198616915b828110156200033f578886015182559484019460019091019084016200031e565b50858210156200035e5787850151600019600388901b60f8161c191681555b5050505050600190811b01905550565b60805160a05160c05160e0516101005161012051613ef7620003be6000396000612231015260006122800152600061225b015260006121b4015260006121de015260006122080152613ef76000f3fe60806040526004361061023f5760003560e01c80637b3c71d31161012e578063da95691a116100ab578063e23a9a521161006f578063e23a9a52146107c5578063eb9019d4146108b3578063f23a6e61146108d3578063f8ce560a146108ff578063fe0d94c11461092057600080fd5b8063da95691a146106be578063dc1fb5a5146106de578063dd4e2ba51461072b578063ddf0b00914610771578063deaaa7cc1461079157600080fd5b8063bc197c81116100f2578063bc197c811461061f578063c01f9e371461064b578063c28bc2fa1461066b578063c59057e41461067e578063da7422281461069e57600080fd5b80637b3c71d3146105835780637d5e81e2146105a35780638da5cb5b146105c35780639a802a6d146105fb578063b58131b01461044957600080fd5b8063328dd982116101bc578063438596321161018057806343859632146104ca57806354fd4d50146104ea5780635678138814610514578063572b6c05146105345780635f398a141461056357600080fd5b8063328dd982146104195780633932abb1146104495780633bccf4fd1461045d5780633e4f49e61461047d57806340e58ee5146104aa57600080fd5b8063150b7a0211610203578063150b7a021461035957806324bc1a641461039d5780632656227d146103b25780632d63f693146103c55780632fe3e261146103e557600080fd5b8063013cf08b1461024d57806301ffc9a7146102c857806302a251a3146102f8578063034201811461031757806306fdde031461033757600080fd5b3661024857005b005b600080fd5b34801561025957600080fd5b5061026d610268366004612f70565b610938565b604080519a8b526001600160a01b0390991660208b0152978901969096526060880194909452608087019290925260a086015260c085015260e084015215156101008301521515610120820152610140015b60405180910390f35b3480156102d457600080fd5b506102e86102e3366004612f89565b6109d7565b60405190151581526020016102bf565b34801561030457600080fd5b5061b3cb5b6040519081526020016102bf565b34801561032357600080fd5b506103096103323660046130c6565b6109e8565b34801561034357600080fd5b5061034c610ae0565b6040516102bf91906131bc565b34801561036557600080fd5b506103846103743660046131e6565b630a85bd0160e11b949350505050565b6040516001600160e01b031990911681526020016102bf565b3480156103a957600080fd5b50610309610b72565b6103096103c03660046133bc565b610b82565b3480156103d157600080fd5b506103096103e0366004612f70565b610cb3565b3480156103f157600080fd5b506103097fb3b3f3b703cd84ce352197dcff232b1b5d3cfb2025ce47cf04742d0651f1af8881565b34801561042557600080fd5b50610439610434366004612f70565b610cea565b6040516102bf9493929190613514565b34801561045557600080fd5b506000610309565b34801561046957600080fd5b50610309610478366004613561565b610f7b565b34801561048957600080fd5b5061049d610498366004612f70565b610ff1565b6040516102bf91906135c5565b3480156104b657600080fd5b506102466104c5366004612f70565b610ffc565b3480156104d657600080fd5b506102e86104e53660046135ed565b611315565b3480156104f657600080fd5b506040805180820190915260018152603160f81b602082015261034c565b34801561052057600080fd5b5061030961052f366004613619565b611375565b34801561054057600080fd5b506102e861054f36600461363c565b6000546001600160a01b0391821691161490565b34801561056f57600080fd5b5061030961057e366004613657565b6113a5565b34801561058f57600080fd5b5061030961059e3660046136da565b6113f6565b3480156105af57600080fd5b506103096105be366004613733565b61144f565b3480156105cf57600080fd5b506001546105e3906001600160a01b031681565b6040516001600160a01b0390911681526020016102bf565b34801561060757600080fd5b506103096106163660046137d3565b50600192915050565b34801561062b57600080fd5b5061038461063a366004613829565b63bc197c8160e01b95945050505050565b34801561065757600080fd5b50610309610666366004612f70565b61151c565b6102466106793660046138b8565b61154b565b34801561068a57600080fd5b506103096106993660046133bc565b611652565b3480156106aa57600080fd5b506102466106b936600461363c565b61168c565b3480156106ca57600080fd5b506103096106d9366004613978565b6116ee565b3480156106ea57600080fd5b5060075461070a906001600160a01b03811690600160a01b900460ff1682565b604080516001600160a01b03909316835260ff9091166020830152016102bf565b34801561073757600080fd5b5060408051808201909152601a81527f737570706f72743d627261766f2671756f72756d3d627261766f000000000000602082015261034c565b34801561077d57600080fd5b5061024661078c366004612f70565b61171a565b34801561079d57600080fd5b506103097f150214d74d59b7d1e90c73fc22ef3d991dd0a76b046543d4d80ab92d2a50328f81565b3480156107d157600080fd5b506108726107e03660046135ed565b6040805160808101825260008082526020820181905291810182905260608101919091525060009182526006602090815260408084206001600160a01b0393909316845260089092018152918190208151608081018352815460ff8082161515835261010082041694820194909452620100009093046001600160601b03169183019190915260010154606082015290565b6040516102bf919081511515815260208083015160ff16908201526040808301516001600160601b0316908201526060918201519181019190915260800190565b3480156108bf57600080fd5b506103096108ce366004613a19565b611726565b3480156108df57600080fd5b506103846108ee366004613a43565b63f23a6e6160e01b95945050505050565b34801561090b57600080fd5b5061030961091a366004612f70565b50601490565b61024661092e366004612f70565b611732565b905090565b806000808080808080808061094c8a610cb3565b96506109578b61151c565b60008c81526006602081905260408220805460058201549282015460078301546001600160a01b039092169e50949a5091985092965094506109988d610ff1565b905060028160078111156109ae576109ae6135af565b14935060078160078111156109c5576109c56135af565b14925050509193959799509193959799565b60006109e2826119a0565b92915050565b600080610a8c610a847fb3b3f3b703cd84ce352197dcff232b1b5d3cfb2025ce47cf04742d0651f1af888c8c8c8c604051610a24929190613aa7565b60405180910390208b80519060200120604051602001610a69959493929190948552602085019390935260ff9190911660408401526060830152608082015260a00190565b60405160208183030381529060405280519060200120611a0b565b868686611a59565b9050610ad28a828b8b8b8080601f0160208091040260200160405190810160405280939291908181526020018383808284376000920191909152508d9250611a77915050565b9a9950505050505050505050565b606060028054610aef90613ab7565b80601f0160208091040260200160405190810160405280929190818152602001828054610b1b90613ab7565b8015610b685780601f10610b3d57610100808354040283529160200191610b68565b820191906000526020600020905b815481529060010190602001808311610b4b57829003601f168201915b5050505050905090565b600061093361091a600143613b07565b600080610b9186868686611652565b90506000610b9e82610ff1565b90506004816007811115610bb457610bb46135af565b1480610bd157506005816007811115610bcf57610bcf6135af565b145b610c2c5760405162461bcd60e51b815260206004820152602160248201527f476f7665726e6f723a2070726f706f73616c206e6f74207375636365737366756044820152601b60fa1b60648201526084015b60405180910390fd5b60008281526003602052604090819020600201805460ff19166001179055517f712ae1383f79ac853f8d882153778e0260ef8f03b504e2866e0593e04d2b291f90610c7a9084815260200190565b60405180910390a1610c8f8288888888611bca565b610c9c8288888888611c57565b610ca98288888888611bca565b5095945050505050565b60008181526003602090815260408083208151928301909152546001600160401b0316908190525b6001600160401b031692915050565b60608060608060006006600087815260200190815260200160002090508060010181600201826003018360040183805480602002602001604051908101604052809291908181526020018280548015610d6c57602002820191906000526020600020905b81546001600160a01b03168152600190910190602001808311610d4e575b5050505050935082805480602002602001604051908101604052809291908181526020018280548015610dbe57602002820191906000526020600020905b815481526020019060010190808311610daa575b5050505050925081805480602002602001604051908101604052809291908181526020016000905b82821015610e92578382906000526020600020018054610e0590613ab7565b80601f0160208091040260200160405190810160405280929190818152602001828054610e3190613ab7565b8015610e7e5780601f10610e5357610100808354040283529160200191610e7e565b820191906000526020600020905b815481529060010190602001808311610e6157829003601f168201915b505050505081526020019060010190610de6565b50505050915080805480602002602001604051908101604052809291908181526020016000905b82821015610f65578382906000526020600020018054610ed890613ab7565b80601f0160208091040260200160405190810160405280929190818152602001828054610f0490613ab7565b8015610f515780601f10610f2657610100808354040283529160200191610f51565b820191906000526020600020905b815481529060010190602001808311610f3457829003601f168201915b505050505081526020019060010190610eb9565b5050505090509450945094509450509193509193565b604080517f150214d74d59b7d1e90c73fc22ef3d991dd0a76b046543d4d80ab92d2a50328f602082015290810186905260ff851660608201526000908190610fc990610a8490608001610a69565b9050610fe687828860405180602001604052806000815250611c64565b979650505050505050565b60006109e282611c90565b600081815260066020526040902080546001600160a01b031661101d611da4565b6001600160a01b0316148061104b575060008154611049906001600160a01b03166108ce600143613b07565b105b6110a75760405162461bcd60e51b815260206004820152602760248201527f476f7665726e6f72427261766f3a2070726f706f7365722061626f76652074686044820152661c995cda1bdb1960ca1b6064820152608401610c23565b6113108160010180548060200260200160405190810160405280929190818152602001828054801561110257602002820191906000526020600020905b81546001600160a01b031681526001909101906020018083116110e4575b50505050508260020180548060200260200160405190810160405280929190818152602001828054801561115557602002820191906000526020600020905b815481526020019060010190808311611141575b505050505061130684600301805480602002602001604051908101604052809291908181526020016000905b8282101561122d5783829060005260206000200180546111a090613ab7565b80601f01602080910402602001604051908101604052809291908181526020018280546111cc90613ab7565b80156112195780601f106111ee57610100808354040283529160200191611219565b820191906000526020600020905b8154815290600101906020018083116111fc57829003601f168201915b505050505081526020019060010190611181565b50505060048701805460408051602080840282018101909252828152935060009084015b828210156112fd57838290600052602060002001805461127090613ab7565b80601f016020809104026020016040519081016040528092919081815260200182805461129c90613ab7565b80156112e95780601f106112be576101008083540402835291602001916112e9565b820191906000526020600020905b8154815290600101906020018083116112cc57829003601f168201915b505050505081526020019060010190611251565b50505050611dae565b84600a0154611ee0565b505050565b60008281526006602090815260408083206001600160a01b038516845260080190915281205460ff168061136e575060008381526006602090815260408083206001600160a01b038616845260080190915290205460ff165b9392505050565b600080611380611da4565b905061139d84828560405180602001604052806000815250611c64565b949350505050565b6000806113b0611da4565b9050610fe687828888888080601f0160208091040260200160405190810160405280939291908181526020018383808284376000920191909152508a9250611a77915050565b600080611401611da4565b905061144586828787878080601f016020809104026020016040519081016040528093929190818152602001838380828437600092019190915250611c6492505050565b9695505050505050565b600080546001600160a01b031633146114995760405162461bcd60e51b815260206004820152600c60248201526b155b985d5d1a1bdc9a5e995960a21b6044820152606401610c23565b60006114a3611f35565b6040810151600754919250600160a01b90910460ff161480156114d5575080516007546001600160a01b039081169116145b6115105760405162461bcd60e51b815260206004820152600c60248201526b155b985d5d1a1bdc9a5e995960a21b6044820152606401610c23565b61144586868686611fbe565b60008181526003602090815260408083208151928301909152600101546001600160401b031690819052610cdb565b30611554611da4565b6001600160a01b0316146115aa5760405162461bcd60e51b815260206004820152601860248201527f476f7665726e6f723a206f6e6c79476f7665726e616e636500000000000000006044820152606401610c23565b6115c1565b806115ba600461202d565b036115af57505b600080856001600160a01b03168585856040516115df929190613aa7565b60006040518083038185875af1925050503d806000811461161c576040519150601f19603f3d011682016040523d82523d6000602084013e611621565b606091505b50915091506116498282604051806060016040528060288152602001613e73602891396120ac565b50505050505050565b60008484848460405160200161166b9493929190613b1a565b60408051601f19818403018152919052805160209091012095945050505050565b6001546001600160a01b031633146116cc5760405162461bcd60e51b815260206004820152600360248201526234303360e81b6044820152606401610c23565b600080546001600160a01b0319166001600160a01b0392909216919091179055565b60006117056116fb611da4565b87878787876120c5565b61144586866117148787611dae565b8561144f565b6117238161171a565b50565b600061136e8383612182565b60008181526006602090815260409182902060018101805484518185028101850190955280855291936113109390929083018282801561179b57602002820191906000526020600020905b81546001600160a01b0316815260019091019060200180831161177d575b5050505050826002018054806020026020016040519081016040528092919081815260200182805480156117ee57602002820191906000526020600020905b8154815260200190600101908083116117da575b505050505061199684600301805480602002602001604051908101604052809291908181526020016000905b828210156118c657838290600052602060002001805461183990613ab7565b80601f016020809104026020016040519081016040528092919081815260200182805461186590613ab7565b80156118b25780601f10611887576101008083540402835291602001916118b2565b820191906000526020600020905b81548152906001019060200180831161189557829003601f168201915b50505050508152602001906001019061181a565b50505060048701805460408051602080840282018101909252828152935060009084015b828210156112fd57838290600052602060002001805461190990613ab7565b80601f016020809104026020016040519081016040528092919081815260200182805461193590613ab7565b80156119825780601f1061195757610100808354040283529160200191611982565b820191906000526020600020905b81548152906001019060200180831161196557829003601f168201915b5050505050815260200190600101906118ea565b84600a0154610b82565b60006001600160e01b0319821663bf26d89760e01b14806119d157506001600160e01b031982166379dd796f60e01b145b806119ec57506001600160e01b03198216630271189760e51b145b806109e257506301ffc9a760e01b6001600160e01b03198316146109e2565b60006109e2611a186121a7565b8360405161190160f01b6020820152602281018390526042810182905260009060620160405160208183030381529060405280519060200120905092915050565b6000806000611a6a878787876122ce565b91509150610ca981612392565b60008581526003602052604081206001611a9088610ff1565b6007811115611aa157611aa16135af565b14611afa5760405162461bcd60e51b815260206004820152602360248201527f476f7665726e6f723a20766f7465206e6f742063757272656e746c792061637460448201526269766560e81b6064820152608401610c23565b604080516020810190915281546001600160401b031690526001611b2188888884886124dc565b8351600003611b7657866001600160a01b03167fb8e138887d0aa13bab447e82de9d5c1777041ecd21ca36ba824ff1e6c07ddda489888489604051611b699493929190613b65565b60405180910390a2610fe6565b866001600160a01b03167fe2babfbac5889a709b63bb7f598b324e08bc5a4fb9ec647fb3cbc9ec07eb87128988848989604051611bb7959493929190613b8d565b60405180910390a2979650505050505050565b611c50565b8451811015611c4e57306001600160a01b0316858281518110611bf457611bf4613bd3565b60200260200101516001600160a01b031603611c3e57611c3e838281518110611c1f57611c1f613bd3565b602002602001015180519060200120600461273f90919063ffffffff16565b611c4781613be9565b9050611bcf565b505b5050505050565b611c50858585858561277b565b6000611c8785858585611c8260408051602081019091526000815290565b611a77565b95945050505050565b6000818152600360205260408120600281015460ff1615611cb45750600792915050565b6002810154610100900460ff1615611ccf5750600292915050565b6000611cda84610cb3565b905080600003611d2c5760405162461bcd60e51b815260206004820152601d60248201527f476f7665726e6f723a20756e6b6e6f776e2070726f706f73616c2069640000006044820152606401610c23565b438110611d3d575060009392505050565b6000611d488561151c565b9050438110611d5c57506001949350505050565b611d6585612871565b8015611d895750600085815260066020819052604090912090810154600590910154115b15611d9957506004949350505050565b506003949350505050565b6000610933612899565b6060600082516001600160401b03811115611dcb57611dcb613011565b604051908082528060200260200182016040528015611dfe57816020015b6060815260200190600190039081611de95790505b50905060005b8451811015611ed857848181518110611e1f57611e1f613bd3565b602002602001015151600014611e8f57848181518110611e4157611e41613bd3565b602002602001015180519060200120848281518110611e6257611e62613bd3565b6020026020010151604051602001611e7b929190613c02565b604051602081830303815290604052611eaa565b838181518110611ea157611ea1613bd3565b60200260200101515b828281518110611ebc57611ebc613bd3565b602002602001018190525080611ed190613be9565b9050611e04565b509392505050565b600080546001600160a01b03163314611f295760405162461bcd60e51b815260206004820152600b60248201526a436f756e7465723a34323960a81b6044820152606401610c23565b611c87858585856128a3565b611f62604051806060016040528060006001600160a01b0316815260200160008152602001600081525090565b60008054819081906001600160a01b03163303611f925760683603359250602836033560601c9050604836033591505b6040518060600160405280826001600160a01b0316815260200183815260200184815250935050505090565b6000612021611fcb611da4565b868686516001600160401b03811115611fe657611fe6613011565b60405190808252806020026020018201604052801561201957816020015b60608152602001906001900390816120045790505b5087876120c5565b611c87858585856129c1565b60006120488254600f81810b600160801b909204900b131590565b1561206657604051631ed9509560e11b815260040160405180910390fd5b508054600f0b6000818152600180840160205260408220805492905583546fffffffffffffffffffffffffffffffff191692016001600160801b03169190911790915590565b606083156120bb57508161136e565b61136e8383612c84565b8051602082012060006120e387876120dd8888611dae565b85611652565b6000818152600660205260409020600a810154919250906121775780546001600160a01b0319166001600160a01b038a16178155875161212c90600183019060208b0190612da7565b50865161214290600283019060208a0190612e08565b5085516121589060038301906020890190612e43565b50845161216e9060048301906020880190612e95565b50600a81018390555b505050505050505050565b600061136e838361219e60408051602081019091526000815290565b60019392505050565b6000306001600160a01b037f00000000000000000000000000000000000000000000000000000000000000001614801561220057507f000000000000000000000000000000000000000000000000000000000000000046145b1561222a57507f000000000000000000000000000000000000000000000000000000000000000090565b50604080517f00000000000000000000000000000000000000000000000000000000000000006020808301919091527f0000000000000000000000000000000000000000000000000000000000000000828401527f000000000000000000000000000000000000000000000000000000000000000060608301524660808301523060a0808401919091528351808403909101815260c0909201909252805191012090565b6000807f7fffffffffffffffffffffffffffffff5d576e7357a4501ddfe92f46681b20a08311156123055750600090506003612389565b6040805160008082526020820180845289905260ff881692820192909252606081018690526080810185905260019060a0016020604051602081039080840390855afa158015612359573d6000803e3d6000fd5b5050604051601f1901519150506001600160a01b03811661238257600060019250925050612389565b9150600090505b94509492505050565b60008160048111156123a6576123a66135af565b036123ae5750565b60018160048111156123c2576123c26135af565b0361240f5760405162461bcd60e51b815260206004820152601860248201527f45434453413a20696e76616c6964207369676e617475726500000000000000006044820152606401610c23565b6002816004811115612423576124236135af565b036124705760405162461bcd60e51b815260206004820152601f60248201527f45434453413a20696e76616c6964207369676e6174757265206c656e677468006044820152606401610c23565b6003816004811115612484576124846135af565b036117235760405162461bcd60e51b815260206004820152602260248201527f45434453413a20696e76616c6964207369676e6174757265202773272076616c604482015261756560f01b6064820152608401610c23565b60006124e6611f35565b60209081015160008881526006835260408082206001600160a01b038a16835260088101855281832084845260098201909552912054919350919060ff1680156125985760405162461bcd60e51b815260206004820152603c60248201527f476f7665726e6f72436f6d7061746962696c6974794e4654476c6f62616c456e60448201527f7472793a20746f6b656e20766f746520616c72656164792063617374000000006064820152608401610c23565b815460ff16156126105760405162461bcd60e51b815260206004820152603e60248201527f476f7665726e6f72436f6d7061746962696c6974794e4654476c6f62616c456e60448201527f7472793a206164647265737320766f746520616c7265616479206361737400006064820152608401610c23565b600084815260098401602052604090208054600160ff199091168117909155825483820186905561ffff191661010060ff8a16021717825561265186612cae565b82546001600160601b039190911662010000026dffffffffffffffffffffffff00001990911617825560ff87166126a157858360060160008282546126969190613c33565b909155506121779050565b60001960ff8816016126c157858360050160008282546126969190613c33565b60011960ff8816016126e157858360070160008282546126969190613c33565b60405162461bcd60e51b815260206004820152602d60248201527f476f7665726e6f72436f6d7061746962696c697479427261766f3a20696e766160448201526c6c696420766f7465207479706560981b6064820152608401610c23565b8154600160801b90819004600f0b6000818152600180860160205260409091209390935583546001600160801b03908116939091011602179055565b6000604051806060016040528060278152602001613e9b60279139905060005b8551811015611649576000808783815181106127b9576127b9613bd3565b60200260200101516001600160a01b03168784815181106127dc576127dc613bd3565b60200260200101518785815181106127f6576127f6613bd3565b602002602001015160405161280b9190613c46565b60006040518083038185875af1925050503d8060008114612848576040519150601f19603f3d011682016040523d82523d6000602084013e61284d565b606091505b509150915061285d8282866120ac565b5050508061286a90613be9565b905061279b565b6000818152600660205260408120600581015461289061091a85610cb3565b11159392505050565b6000610933612d1a565b6000806128b286868686611652565b905060006128bf82610ff1565b905060028160078111156128d5576128d56135af565b141580156128f5575060068160078111156128f2576128f26135af565b14155b801561291357506007816007811115612910576129106135af565b14155b61295f5760405162461bcd60e51b815260206004820152601d60248201527f476f7665726e6f723a2070726f706f73616c206e6f74206163746976650000006044820152606401610c23565b60008281526003602052604090819020600201805461ff001916610100179055517f789cf55be980739dad1d0699b93b58e806b51c9d96619bfa8fe0a28abaa7b30c906129af9084815260200190565b60405180910390a15095945050505050565b6000806129da6129cf611da4565b6108ce600143613b07565b1015612a425760405162461bcd60e51b815260206004820152603160248201527f476f7665726e6f723a2070726f706f73657220766f7465732062656c6f7720706044820152701c9bdc1bdcd85b081d1a1c995cda1bdb19607a1b6064820152608401610c23565b6000612a578686868680519060200120611652565b90508451865114612a7a5760405162461bcd60e51b8152600401610c2390613c62565b8351865114612a9b5760405162461bcd60e51b8152600401610c2390613c62565b6000865111612aec5760405162461bcd60e51b815260206004820152601860248201527f476f7665726e6f723a20656d7074792070726f706f73616c00000000000000006044820152606401610c23565b600081815260036020908152604091829020825191820190925281546001600160401b03169081905215612b6c5760405162461bcd60e51b815260206004820152602160248201527f476f7665726e6f723a2070726f706f73616c20616c72656164792065786973746044820152607360f81b6064820152608401610c23565b6000612b7781612d3f565b612b8043612d3f565b612b8a9190613ca3565b90506000612b9961b3cb612d3f565b612ba39083613ca3565b835467ffffffffffffffff19166001600160401b038416178455905060018301805467ffffffffffffffff19166001600160401b0383161790557f7d84a6263ae0d98d3329bd7b46bb4e8d6f98cd35a7adb45c274c8b7fd5ebd5e084612c07611da4565b8b8b8d516001600160401b03811115612c2257612c22613011565b604051908082528060200260200182016040528015612c5557816020015b6060815260200190600190039081612c405790505b508c88888e604051612c6f99989796959493929190613cca565b60405180910390a15091979650505050505050565b815115612c945781518083602001fd5b8060405162461bcd60e51b8152600401610c2391906131bc565b60006001600160601b03821115612d165760405162461bcd60e51b815260206004820152602660248201527f53616665436173743a2076616c756520646f65736e27742066697420696e203960448201526536206269747360d01b6064820152608401610c23565b5090565b600080546001600160a01b03163303612d3a575060131936013560601c90565b503390565b60006001600160401b03821115612d165760405162461bcd60e51b815260206004820152602660248201527f53616665436173743a2076616c756520646f65736e27742066697420696e203660448201526534206269747360d01b6064820152608401610c23565b828054828255906000526020600020908101928215612dfc579160200282015b82811115612dfc57825182546001600160a01b0319166001600160a01b03909116178255602090920191600190910190612dc7565b50612d16929150612ee7565b828054828255906000526020600020908101928215612dfc579160200282015b82811115612dfc578251825591602001919060010190612e28565b828054828255906000526020600020908101928215612e89579160200282015b82811115612e895782518290612e799082613db3565b5091602001919060010190612e63565b50612d16929150612efc565b828054828255906000526020600020908101928215612edb579160200282015b82811115612edb5782518290612ecb9082613db3565b5091602001919060010190612eb5565b50612d16929150612f19565b5b80821115612d165760008155600101612ee8565b80821115612d16576000612f108282612f36565b50600101612efc565b80821115612d16576000612f2d8282612f36565b50600101612f19565b508054612f4290613ab7565b6000825580601f10612f52575050565b601f0160209004906000526020600020908101906117239190612ee7565b600060208284031215612f8257600080fd5b5035919050565b600060208284031215612f9b57600080fd5b81356001600160e01b03198116811461136e57600080fd5b803560ff81168114612fc457600080fd5b919050565b60008083601f840112612fdb57600080fd5b5081356001600160401b03811115612ff257600080fd5b60208301915083602082850101111561300a57600080fd5b9250929050565b634e487b7160e01b600052604160045260246000fd5b604051601f8201601f191681016001600160401b038111828210171561304f5761304f613011565b604052919050565b600082601f83011261306857600080fd5b81356001600160401b0381111561308157613081613011565b613094601f8201601f1916602001613027565b8181528460208386010111156130a957600080fd5b816020850160208301376000918101602001919091529392505050565b60008060008060008060008060e0898b0312156130e257600080fd5b883597506130f260208a01612fb3565b965060408901356001600160401b038082111561310e57600080fd5b61311a8c838d01612fc9565b909850965060608b013591508082111561313357600080fd5b506131408b828c01613057565b94505061314f60808a01612fb3565b925060a0890135915060c089013590509295985092959890939650565b60005b8381101561318757818101518382015260200161316f565b50506000910152565b600081518084526131a881602086016020860161316c565b601f01601f19169290920160200192915050565b60208152600061136e6020830184613190565b80356001600160a01b0381168114612fc457600080fd5b600080600080608085870312156131fc57600080fd5b613205856131cf565b9350613213602086016131cf565b92506040850135915060608501356001600160401b0381111561323557600080fd5b61324187828801613057565b91505092959194509250565b60006001600160401b0382111561326657613266613011565b5060051b60200190565b600082601f83011261328157600080fd5b813560206132966132918361324d565b613027565b82815260059290921b840181019181810190868411156132b557600080fd5b8286015b848110156132d7576132ca816131cf565b83529183019183016132b9565b509695505050505050565b600082601f8301126132f357600080fd5b813560206133036132918361324d565b82815260059290921b8401810191818101908684111561332257600080fd5b8286015b848110156132d75780358352918301918301613326565b600082601f83011261334e57600080fd5b8135602061335e6132918361324d565b82815260059290921b8401810191818101908684111561337d57600080fd5b8286015b848110156132d75780356001600160401b038111156133a05760008081fd5b6133ae8986838b0101613057565b845250918301918301613381565b600080600080608085870312156133d257600080fd5b84356001600160401b03808211156133e957600080fd5b6133f588838901613270565b9550602087013591508082111561340b57600080fd5b613417888389016132e2565b9450604087013591508082111561342d57600080fd5b5061343a8782880161333d565b949793965093946060013593505050565b600081518084526020808501945080840160005b838110156134845781516001600160a01b03168752958201959082019060010161345f565b509495945050505050565b600081518084526020808501945080840160005b83811015613484578151875295820195908201906001016134a3565b600081518084526020808501808196508360051b8101915082860160005b858110156135075782840389526134f5848351613190565b988501989350908401906001016134dd565b5091979650505050505050565b608081526000613527608083018761344b565b8281036020840152613539818761348f565b9050828103604084015261354d81866134bf565b90508281036060840152610fe681856134bf565b600080600080600060a0868803121561357957600080fd5b8535945061358960208701612fb3565b935061359760408701612fb3565b94979396509394606081013594506080013592915050565b634e487b7160e01b600052602160045260246000fd5b60208101600883106135e757634e487b7160e01b600052602160045260246000fd5b91905290565b6000806040838503121561360057600080fd5b82359150613610602084016131cf565b90509250929050565b6000806040838503121561362c57600080fd5b8235915061361060208401612fb3565b60006020828403121561364e57600080fd5b61136e826131cf565b60008060008060006080868803121561366f57600080fd5b8535945061367f60208701612fb3565b935060408601356001600160401b038082111561369b57600080fd5b6136a789838a01612fc9565b909550935060608801359150808211156136c057600080fd5b506136cd88828901613057565b9150509295509295909350565b600080600080606085870312156136f057600080fd5b8435935061370060208601612fb3565b925060408501356001600160401b0381111561371b57600080fd5b61372787828801612fc9565b95989497509550505050565b6000806000806080858703121561374957600080fd5b84356001600160401b038082111561376057600080fd5b61376c88838901613270565b9550602087013591508082111561378257600080fd5b61378e888389016132e2565b945060408701359150808211156137a457600080fd5b6137b08883890161333d565b935060608701359150808211156137c657600080fd5b5061324187828801613057565b6000806000606084860312156137e857600080fd5b6137f1846131cf565b92506020840135915060408401356001600160401b0381111561381357600080fd5b61381f86828701613057565b9150509250925092565b600080600080600060a0868803121561384157600080fd5b61384a866131cf565b9450613858602087016131cf565b935060408601356001600160401b038082111561387457600080fd5b61388089838a016132e2565b9450606088013591508082111561389657600080fd5b6138a289838a016132e2565b935060808801359150808211156136c057600080fd5b600080600080606085870312156138ce57600080fd5b6138d7856131cf565b93506020850135925060408501356001600160401b0381111561371b57600080fd5b600082601f83011261390a57600080fd5b8135602061391a6132918361324d565b82815260059290921b8401810191818101908684111561393957600080fd5b8286015b848110156132d75780356001600160401b0381111561395c5760008081fd5b61396a8986838b0101613057565b84525091830191830161393d565b600080600080600060a0868803121561399057600080fd5b85356001600160401b03808211156139a757600080fd5b6139b389838a01613270565b965060208801359150808211156139c957600080fd5b6139d589838a016132e2565b955060408801359150808211156139eb57600080fd5b6139f789838a016138f9565b94506060880135915080821115613a0d57600080fd5b6138a289838a0161333d565b60008060408385031215613a2c57600080fd5b613a35836131cf565b946020939093013593505050565b600080600080600060a08688031215613a5b57600080fd5b613a64866131cf565b9450613a72602087016131cf565b9350604086013592506060860135915060808601356001600160401b03811115613a9b57600080fd5b6136cd88828901613057565b8183823760009101908152919050565b600181811c90821680613acb57607f821691505b602082108103613aeb57634e487b7160e01b600052602260045260246000fd5b50919050565b634e487b7160e01b600052601160045260246000fd5b818103818111156109e2576109e2613af1565b608081526000613b2d608083018761344b565b8281036020840152613b3f818761348f565b90508281036040840152613b5381866134bf565b91505082606083015295945050505050565b84815260ff841660208201528260408201526080606082015260006114456080830184613190565b85815260ff8516602082015283604082015260a060608201526000613bb560a0830185613190565b8281036080840152613bc78185613190565b98975050505050505050565b634e487b7160e01b600052603260045260246000fd5b600060018201613bfb57613bfb613af1565b5060010190565b6001600160e01b0319831681528151600090613c2581600485016020870161316c565b919091016004019392505050565b808201808211156109e2576109e2613af1565b60008251613c5881846020870161316c565b9190910192915050565b60208082526021908201527f476f7665726e6f723a20696e76616c69642070726f706f73616c206c656e67746040820152600d60fb1b606082015260800190565b6001600160401b03818116838216019080821115613cc357613cc3613af1565b5092915050565b8981526001600160a01b038916602082015261012060408201819052600090613cf58382018b61344b565b90508281036060840152613d09818a61348f565b90508281036080840152613d1d81896134bf565b905082810360a0840152613d3181886134bf565b6001600160401b0387811660c0860152861660e08501528381036101008501529050613d5d8185613190565b9c9b505050505050505050505050565b601f82111561131057600081815260208120601f850160051c81016020861015613d945750805b601f850160051c820191505b81811015611c4e57828155600101613da0565b81516001600160401b03811115613dcc57613dcc613011565b613de081613dda8454613ab7565b84613d6d565b602080601f831160018114613e155760008415613dfd5750858301515b600019600386901b1c1916600185901b178555611c4e565b600085815260208120601f198616915b82811015613e4457888601518255948401946001909101908401613e25565b5085821015613e625787850151600019600388901b60f8161c191681555b5050505050600190811b0190555056fe476f7665726e6f723a2072656c617920726576657274656420776974686f7574206d657373616765476f7665726e6f723a2063616c6c20726576657274656420776974686f7574206d657373616765a26469706673582212205962024d957ab1aae1779704da79b0b6ea42082c575d14d68ce4eaa65256cdc764736f6c63430008110033",
  "devdoc": {
    "errors": {
      "Empty()": [
        {
          "details": "An operation (e.g. {front}) couldn't be completed due to the queue being empty."
        }
      ]
    },
    "kind": "dev",
    "methods": {
      "COUNTING_MODE()": {
        "details": "A description of the possible `support` values for {castVote} and the way these votes are counted, meant to be consumed by UIs to show correct vote options and interpret the results. The string is a URL-encoded sequence of key-value pairs that each describe one aspect, for example `support=bravo&quorum=for,abstain`. There are 2 standard keys: `support` and `quorum`. - `support=bravo` refers to the vote options 0 = Against, 1 = For, 2 = Abstain, as in `GovernorBravo`. - `quorum=bravo` means that only For votes are counted towards quorum. - `quorum=for,abstain` means that both For and Abstain votes are counted towards quorum. If a counting module makes use of encoded `params`, it should  include this under a `params` key with a unique name that describes the behavior. For example: - `params=fractional` might refer to a scheme where votes are divided fractionally between for/against/abstain. - `params=erc721` might refer to a scheme where specific NFTs are delegated to vote. NOTE: The string can be decoded by the standard https://developer.mozilla.org/en-US/docs/Web/API/URLSearchParams[`URLSearchParams`] JavaScript class."
      },
      "cancel(uint256)": {
        "details": "Cancels a proposal only if sender is the proposer, or proposer delegates dropped below proposal threshold."
      },
      "castVote(uint256,uint8)": {
        "details": "See {IGovernor-castVote}."
      },
      "castVoteBySig(uint256,uint8,uint8,bytes32,bytes32)": {
        "details": "See {IGovernor-castVoteBySig}."
      },
      "castVoteWithReason(uint256,uint8,string)": {
        "details": "See {IGovernor-castVoteWithReason}."
      },
      "castVoteWithReasonAndParams(uint256,uint8,string,bytes)": {
        "details": "See {IGovernor-castVoteWithReasonAndParams}."
      },
      "castVoteWithReasonAndParamsBySig(uint256,uint8,string,bytes,uint8,bytes32,bytes32)": {
        "details": "See {IGovernor-castVoteWithReasonAndParamsBySig}."
      },
      "execute(address[],uint256[],bytes[],bytes32)": {
        "details": "See {IGovernor-execute}."
      },
      "execute(uint256)": {
        "details": "See {IGovernorCompatibilityBravo-execute}."
      },
      "getActions(uint256)": {
        "details": "See {IGovernorCompatibilityBravo-getActions}."
      },
      "getReceipt(uint256,address)": {
        "details": "See {IGovernorCompatibilityBravo-getReceipt}."
      },
      "getVotes(address,uint256)": {
        "details": "See {IGovernor-getVotes}."
      },
      "getVotesWithParams(address,uint256,bytes)": {
        "details": "See {IGovernor-getVotesWithParams}."
      },
      "hasVoted(uint256,address)": {
        "details": "See {IGovernor-hasVoted}."
      },
      "hashProposal(address[],uint256[],bytes[],bytes32)": {
        "details": "See {IGovernor-hashProposal}. The proposal id is produced by hashing the ABI encoded `targets` array, the `values` array, the `calldatas` array and the descriptionHash (bytes32 which itself is the keccak256 hash of the description string). This proposal id can be produced from the proposal data which is part of the {ProposalCreated} event. It can even be computed in advance, before the proposal is submitted. Note that the chainId and the governor address are not part of the proposal id computation. Consequently, the same proposal (with same operation and same description) will have the same id if submitted on multiple governors across multiple networks. This also means that in order to execute the same operation twice (on the same governor) the proposer will have to change the description in order to avoid proposal id conflicts."
      },
      "name()": {
        "details": "See {IGovernor-name}."
      },
      "onERC1155BatchReceived(address,address,uint256[],uint256[],bytes)": {
        "details": "See {IERC1155Receiver-onERC1155BatchReceived}."
      },
      "onERC1155Received(address,address,uint256,uint256,bytes)": {
        "details": "See {IERC1155Receiver-onERC1155Received}."
      },
      "onERC721Received(address,address,uint256,bytes)": {
        "details": "See {IERC721Receiver-onERC721Received}."
      },
      "proposalDeadline(uint256)": {
        "details": "See {IGovernor-proposalDeadline}."
      },
      "proposalSnapshot(uint256)": {
        "details": "See {IGovernor-proposalSnapshot}."
      },
      "proposalThreshold()": {
        "details": "Part of the Governor Bravo's interface: _\"The number of votes required in order for a voter to become a proposer\"_."
      },
      "proposals(uint256)": {
        "details": "See {IGovernorCompatibilityBravo-proposals}."
      },
      "propose(address[],uint256[],string[],bytes[],string)": {
        "details": "See {IGovernorCompatibilityBravo-propose}."
      },
      "queue(uint256)": {
        "details": "See {IGovernorCompatibilityBravo-queue}."
      },
      "quorum(uint256)": {
        "details": "Minimum number of cast voted required for a proposal to be successful. Note: The `blockNumber` parameter corresponds to the snapshot used for counting vote. This allows to scale the quorum depending on values such as the totalSupply of a token at this block (see {ERC20Votes})."
      },
      "quorumVotes()": {
        "details": "See {IGovernorCompatibilityBravo-quorumVotes}."
      },
      "relay(address,uint256,bytes)": {
        "details": "Relays a transaction or function call to an arbitrary target. In cases where the governance executor is some contract other than the governor itself, like when using a timelock, this function can be invoked in a governance proposal to recover tokens or Ether that was sent to the governor contract by mistake. Note that if the executor is simply the governor itself, use of `relay` is redundant."
      },
      "state(uint256)": {
        "details": "See {IGovernor-state}."
      },
      "supportsInterface(bytes4)": {
        "details": "See {IERC165-supportsInterface}."
      },
      "version()": {
        "details": "See {IGovernor-version}."
      },
      "votingDelay()": {
        "details": "Delay, in number of block, between the proposal is created and the vote starts. This can be increassed to leave time for users to buy voting power, or delegate it, before the voting of a proposal starts."
      },
      "votingPeriod()": {
        "details": "Delay, in number of blocks, between the vote start and vote ends. NOTE: The {votingDelay} can delay the start of the vote. This must be considered when setting the voting duration compared to the voting delay."
      }
    },
    "version": 1
  },
  "userdoc": {
    "kind": "user",
    "methods": {
      "COUNTING_MODE()": {
        "notice": "module:voting"
      },
      "quorum(uint256)": {
        "notice": "module:user-config"
      },
      "votingDelay()": {
        "notice": "module:user-config"
      },
      "votingPeriod()": {
        "notice": "module:user-config"
      }
    },
    "version": 1
  },
  "storageLayout": {
    "storage": [
      {
        "astId": 8,
        "contract": "src/NFTGovernor/NFTGovernor.sol:NFTGovernor",
        "label": "_trustedForwarder",
        "offset": 0,
        "slot": "0",
        "type": "t_address"
      },
      {
        "astId": 10,
        "contract": "src/NFTGovernor/NFTGovernor.sol:NFTGovernor",
        "label": "owner",
        "offset": 0,
        "slot": "1",
        "type": "t_address"
      },
      {
        "astId": 644,
        "contract": "src/NFTGovernor/NFTGovernor.sol:NFTGovernor",
        "label": "_name",
        "offset": 0,
        "slot": "2",
        "type": "t_string_storage"
      },
      {
        "astId": 649,
        "contract": "src/NFTGovernor/NFTGovernor.sol:NFTGovernor",
        "label": "_proposals",
        "offset": 0,
        "slot": "3",
        "type": "t_mapping(t_uint256,t_struct(ProposalCore)642_storage)"
      },
      {
        "astId": 652,
        "contract": "src/NFTGovernor/NFTGovernor.sol:NFTGovernor",
        "label": "_governanceCall",
        "offset": 0,
        "slot": "4",
        "type": "t_struct(Bytes32Deque)8991_storage"
      },
      {
        "astId": 9368,
        "contract": "src/NFTGovernor/NFTGovernor.sol:NFTGovernor",
        "label": "_proposalDetails",
        "offset": 0,
        "slot": "6",
        "type": "t_mapping(t_uint256,t_struct(ProposalDetails)9363_storage)"
      },
      {
        "astId": 10315,
        "contract": "src/NFTGovernor/NFTGovernor.sol:NFTGovernor",
        "label": "community",
        "offset": 0,
        "slot": "7",
        "type": "t_struct(Community)10312_storage"
      }
    ],
    "types": {
      "t_address": {
        "encoding": "inplace",
        "label": "address",
        "numberOfBytes": "20"
      },
      "t_array(t_address)dyn_storage": {
        "base": "t_address",
        "encoding": "dynamic_array",
        "label": "address[]",
        "numberOfBytes": "32"
      },
      "t_array(t_bytes_storage)dyn_storage": {
        "base": "t_bytes_storage",
        "encoding": "dynamic_array",
        "label": "bytes[]",
        "numberOfBytes": "32"
      },
      "t_array(t_string_storage)dyn_storage": {
        "base": "t_string_storage",
        "encoding": "dynamic_array",
        "label": "string[]",
        "numberOfBytes": "32"
      },
      "t_array(t_uint256)dyn_storage": {
        "base": "t_uint256",
        "encoding": "dynamic_array",
        "label": "uint256[]",
        "numberOfBytes": "32"
      },
      "t_bool": {
        "encoding": "inplace",
        "label": "bool",
        "numberOfBytes": "1"
      },
      "t_bytes32": {
        "encoding": "inplace",
        "label": "bytes32",
        "numberOfBytes": "32"
      },
      "t_bytes_storage": {
        "encoding": "bytes",
        "label": "bytes",
        "numberOfBytes": "32"
      },
      "t_int128": {
        "encoding": "inplace",
        "label": "int128",
        "numberOfBytes": "16"
      },
      "t_mapping(t_address,t_struct(Receipt)10195_storage)": {
        "encoding": "mapping",
        "key": "t_address",
        "label": "mapping(address => struct IGovernorCompatibilityNFTGlobalEntry.Receipt)",
        "numberOfBytes": "32",
        "value": "t_struct(Receipt)10195_storage"
      },
      "t_mapping(t_int128,t_bytes32)": {
        "encoding": "mapping",
        "key": "t_int128",
        "label": "mapping(int128 => bytes32)",
        "numberOfBytes": "32",
        "value": "t_bytes32"
      },
      "t_mapping(t_uint256,t_struct(ProposalCore)642_storage)": {
        "encoding": "mapping",
        "key": "t_uint256",
        "label": "mapping(uint256 => struct Governor.ProposalCore)",
        "numberOfBytes": "32",
        "value": "t_struct(ProposalCore)642_storage"
      },
      "t_mapping(t_uint256,t_struct(ProposalDetails)9363_storage)": {
        "encoding": "mapping",
        "key": "t_uint256",
        "label": "mapping(uint256 => struct GovernorCompatibilityNFTGlobalEntry.ProposalDetails)",
        "numberOfBytes": "32",
        "value": "t_struct(ProposalDetails)9363_storage"
      },
      "t_mapping(t_uint256,t_uint8)": {
        "encoding": "mapping",
        "key": "t_uint256",
        "label": "mapping(uint256 => uint8)",
        "numberOfBytes": "32",
        "value": "t_uint8"
      },
      "t_string_storage": {
        "encoding": "bytes",
        "label": "string",
        "numberOfBytes": "32"
      },
      "t_struct(BlockNumber)5912_storage": {
        "encoding": "inplace",
        "label": "struct Timers.BlockNumber",
        "members": [
          {
            "astId": 5911,
            "contract": "src/NFTGovernor/NFTGovernor.sol:NFTGovernor",
            "label": "_deadline",
            "offset": 0,
            "slot": "0",
            "type": "t_uint64"
          }
        ],
        "numberOfBytes": "32"
      },
      "t_struct(Bytes32Deque)8991_storage": {
        "encoding": "inplace",
        "label": "struct DoubleEndedQueue.Bytes32Deque",
        "members": [
          {
            "astId": 8984,
            "contract": "src/NFTGovernor/NFTGovernor.sol:NFTGovernor",
            "label": "_begin",
            "offset": 0,
            "slot": "0",
            "type": "t_int128"
          },
          {
            "astId": 8986,
            "contract": "src/NFTGovernor/NFTGovernor.sol:NFTGovernor",
            "label": "_end",
            "offset": 16,
            "slot": "0",
            "type": "t_int128"
          },
          {
            "astId": 8990,
            "contract": "src/NFTGovernor/NFTGovernor.sol:NFTGovernor",
            "label": "_data",
            "offset": 0,
            "slot": "1",
            "type": "t_mapping(t_int128,t_bytes32)"
          }
        ],
        "numberOfBytes": "64"
      },
      "t_struct(Community)10312_storage": {
        "encoding": "inplace",
        "label": "struct NFTGovernor.Community",
        "members": [
          {
            "astId": 10309,
            "contract": "src/NFTGovernor/NFTGovernor.sol:NFTGovernor",
            "label": "contractAddress",
            "offset": 0,
            "slot": "0",
            "type": "t_address"
          },
          {
            "astId": 10311,
            "contract": "src/NFTGovernor/NFTGovernor.sol:NFTGovernor",
            "label": "chainId",
            "offset": 20,
            "slot": "0",
            "type": "t_uint8"
          }
        ],
        "numberOfBytes": "32"
      },
      "t_struct(ProposalCore)642_storage": {
        "encoding": "inplace",
        "label": "struct Governor.ProposalCore",
        "members": [
          {
            "astId": 634,
            "contract": "src/NFTGovernor/NFTGovernor.sol:NFTGovernor",
            "label": "voteStart",
            "offset": 0,
            "slot": "0",
            "type": "t_struct(BlockNumber)5912_storage"
          },
          {
            "astId": 637,
            "contract": "src/NFTGovernor/NFTGovernor.sol:NFTGovernor",
            "label": "voteEnd",
            "offset": 0,
            "slot": "1",
            "type": "t_struct(BlockNumber)5912_storage"
          },
          {
            "astId": 639,
            "contract": "src/NFTGovernor/NFTGovernor.sol:NFTGovernor",
            "label": "executed",
            "offset": 0,
            "slot": "2",
            "type": "t_bool"
          },
          {
            "astId": 641,
            "contract": "src/NFTGovernor/NFTGovernor.sol:NFTGovernor",
            "label": "canceled",
            "offset": 1,
            "slot": "2",
            "type": "t_bool"
          }
        ],
        "numberOfBytes": "96"
      },
      "t_struct(ProposalDetails)9363_storage": {
        "encoding": "inplace",
        "label": "struct GovernorCompatibilityNFTGlobalEntry.ProposalDetails",
        "members": [
          {
            "astId": 9333,
            "contract": "src/NFTGovernor/NFTGovernor.sol:NFTGovernor",
            "label": "proposer",
            "offset": 0,
            "slot": "0",
            "type": "t_address"
          },
          {
            "astId": 9336,
            "contract": "src/NFTGovernor/NFTGovernor.sol:NFTGovernor",
            "label": "targets",
            "offset": 0,
            "slot": "1",
            "type": "t_array(t_address)dyn_storage"
          },
          {
            "astId": 9339,
            "contract": "src/NFTGovernor/NFTGovernor.sol:NFTGovernor",
            "label": "values",
            "offset": 0,
            "slot": "2",
            "type": "t_array(t_uint256)dyn_storage"
          },
          {
            "astId": 9342,
            "contract": "src/NFTGovernor/NFTGovernor.sol:NFTGovernor",
            "label": "signatures",
            "offset": 0,
            "slot": "3",
            "type": "t_array(t_string_storage)dyn_storage"
          },
          {
            "astId": 9345,
            "contract": "src/NFTGovernor/NFTGovernor.sol:NFTGovernor",
            "label": "calldatas",
            "offset": 0,
            "slot": "4",
            "type": "t_array(t_bytes_storage)dyn_storage"
          },
          {
            "astId": 9347,
            "contract": "src/NFTGovernor/NFTGovernor.sol:NFTGovernor",
            "label": "forVotes",
            "offset": 0,
            "slot": "5",
            "type": "t_uint256"
          },
          {
            "astId": 9349,
            "contract": "src/NFTGovernor/NFTGovernor.sol:NFTGovernor",
            "label": "againstVotes",
            "offset": 0,
            "slot": "6",
            "type": "t_uint256"
          },
          {
            "astId": 9351,
            "contract": "src/NFTGovernor/NFTGovernor.sol:NFTGovernor",
            "label": "abstainVotes",
            "offset": 0,
            "slot": "7",
            "type": "t_uint256"
          },
          {
            "astId": 9356,
            "contract": "src/NFTGovernor/NFTGovernor.sol:NFTGovernor",
            "label": "receipts",
            "offset": 0,
            "slot": "8",
            "type": "t_mapping(t_address,t_struct(Receipt)10195_storage)"
          },
          {
            "astId": 9360,
            "contract": "src/NFTGovernor/NFTGovernor.sol:NFTGovernor",
            "label": "tokenVoted",
            "offset": 0,
            "slot": "9",
            "type": "t_mapping(t_uint256,t_uint8)"
          },
          {
            "astId": 9362,
            "contract": "src/NFTGovernor/NFTGovernor.sol:NFTGovernor",
            "label": "descriptionHash",
            "offset": 0,
            "slot": "10",
            "type": "t_bytes32"
          }
        ],
        "numberOfBytes": "352"
      },
      "t_struct(Receipt)10195_storage": {
        "encoding": "inplace",
        "label": "struct IGovernorCompatibilityNFTGlobalEntry.Receipt",
        "members": [
          {
            "astId": 10188,
            "contract": "src/NFTGovernor/NFTGovernor.sol:NFTGovernor",
            "label": "hasVoted",
            "offset": 0,
            "slot": "0",
            "type": "t_bool"
          },
          {
            "astId": 10190,
            "contract": "src/NFTGovernor/NFTGovernor.sol:NFTGovernor",
            "label": "support",
            "offset": 1,
            "slot": "0",
            "type": "t_uint8"
          },
          {
            "astId": 10192,
            "contract": "src/NFTGovernor/NFTGovernor.sol:NFTGovernor",
            "label": "votes",
            "offset": 2,
            "slot": "0",
            "type": "t_uint96"
          },
          {
            "astId": 10194,
            "contract": "src/NFTGovernor/NFTGovernor.sol:NFTGovernor",
            "label": "tokenId",
            "offset": 0,
            "slot": "1",
            "type": "t_uint256"
          }
        ],
        "numberOfBytes": "64"
      },
      "t_uint256": {
        "encoding": "inplace",
        "label": "uint256",
        "numberOfBytes": "32"
      },
      "t_uint64": {
        "encoding": "inplace",
        "label": "uint64",
        "numberOfBytes": "8"
      },
      "t_uint8": {
        "encoding": "inplace",
        "label": "uint8",
        "numberOfBytes": "1"
      },
      "t_uint96": {
        "encoding": "inplace",
        "label": "uint96",
        "numberOfBytes": "12"
      }
    }
  }
}