{
  "address": "0x3E4404d874fa73659cCfFc21Ac4839EcA21F0b4c",
  "abi": [
    {
      "inputs": [
        {
          "internalType": "string[]",
          "name": "_urls",
          "type": "string[]"
        }
      ],
      "stateMutability": "nonpayable",
      "type": "constructor"
    },
    {
      "inputs": [],
      "name": "InvalidOwnership",
      "type": "error"
    },
    {
      "inputs": [],
      "name": "InvalidSignature",
      "type": "error"
    },
    {
      "inputs": [
        {
          "internalType": "address",
          "name": "sender",
          "type": "address"
        },
        {
          "internalType": "string[]",
          "name": "urls",
          "type": "string[]"
        },
        {
          "internalType": "bytes",
          "name": "callData",
          "type": "bytes"
        },
        {
          "internalType": "bytes4",
          "name": "callbackFunction",
          "type": "bytes4"
        },
        {
          "internalType": "bytes",
          "name": "extraData",
          "type": "bytes"
        }
      ],
      "name": "OffchainLookup",
      "type": "error"
    },
    {
      "inputs": [],
      "name": "Unauthorized",
      "type": "error"
    },
    {
      "anonymous": false,
      "inputs": [
        {
          "indexed": true,
          "internalType": "bytes32",
          "name": "role",
          "type": "bytes32"
        },
        {
          "indexed": true,
          "internalType": "bytes32",
          "name": "previousAdminRole",
          "type": "bytes32"
        },
        {
          "indexed": true,
          "internalType": "bytes32",
          "name": "newAdminRole",
          "type": "bytes32"
        }
      ],
      "name": "RoleAdminChanged",
      "type": "event"
    },
    {
      "anonymous": false,
      "inputs": [
        {
          "indexed": true,
          "internalType": "bytes32",
          "name": "role",
          "type": "bytes32"
        },
        {
          "indexed": true,
          "internalType": "address",
          "name": "account",
          "type": "address"
        },
        {
          "indexed": true,
          "internalType": "address",
          "name": "sender",
          "type": "address"
        }
      ],
      "name": "RoleGranted",
      "type": "event"
    },
    {
      "anonymous": false,
      "inputs": [
        {
          "indexed": true,
          "internalType": "bytes32",
          "name": "role",
          "type": "bytes32"
        },
        {
          "indexed": true,
          "internalType": "address",
          "name": "account",
          "type": "address"
        },
        {
          "indexed": true,
          "internalType": "address",
          "name": "sender",
          "type": "address"
        }
      ],
      "name": "RoleRevoked",
      "type": "event"
    },
    {
      "anonymous": false,
      "inputs": [
        {
          "indexed": true,
          "internalType": "address",
          "name": "owner",
          "type": "address"
        },
        {
          "indexed": true,
          "internalType": "address",
          "name": "authorized",
          "type": "address"
        },
        {
          "indexed": true,
          "internalType": "uint256",
          "name": "length",
          "type": "uint256"
        }
      ],
      "name": "Session",
      "type": "event"
    },
    {
      "inputs": [],
      "name": "ADMIN_ROLE",
      "outputs": [
        {
          "internalType": "bytes32",
          "name": "",
          "type": "bytes32"
        }
      ],
      "stateMutability": "view",
      "type": "function"
    },
    {
      "inputs": [],
      "name": "DEFAULT_ADMIN_ROLE",
      "outputs": [
        {
          "internalType": "bytes32",
          "name": "",
          "type": "bytes32"
        }
      ],
      "stateMutability": "view",
      "type": "function"
    },
    {
      "inputs": [],
      "name": "DelegationRegistry",
      "outputs": [
        {
          "internalType": "contract IDelegationRegistry",
          "name": "",
          "type": "address"
        }
      ],
      "stateMutability": "view",
      "type": "function"
    },
    {
      "inputs": [],
      "name": "_domainSeparatorV4",
      "outputs": [
        {
          "internalType": "bytes32",
          "name": "",
          "type": "bytes32"
        }
      ],
      "stateMutability": "view",
      "type": "function"
    },
    {
      "inputs": [
        {
          "internalType": "address",
          "name": "signer",
          "type": "address"
        },
        {
          "internalType": "address",
          "name": "authorizer",
          "type": "address"
        },
        {
          "internalType": "uint256",
          "name": "nonce",
          "type": "uint256"
        },
        {
          "internalType": "uint256",
          "name": "nftChainId",
          "type": "uint256"
        },
        {
          "internalType": "address",
          "name": "nftContract",
          "type": "address"
        },
        {
          "internalType": "uint256",
          "name": "tokenId",
          "type": "uint256"
        },
        {
          "internalType": "uint256",
          "name": "timestamp",
          "type": "uint256"
        }
      ],
      "name": "createMessage",
      "outputs": [
        {
          "internalType": "bytes32",
          "name": "",
          "type": "bytes32"
        }
      ],
      "stateMutability": "view",
      "type": "function"
    },
    {
      "inputs": [
        {
          "internalType": "address",
          "name": "authorized",
          "type": "address"
        }
      ],
      "name": "createSession",
      "outputs": [],
      "stateMutability": "nonpayable",
      "type": "function"
    },
    {
      "inputs": [
        {
          "components": [
            {
              "internalType": "address",
              "name": "from",
              "type": "address"
            },
            {
              "internalType": "address",
              "name": "authorizer",
              "type": "address"
            },
            {
              "internalType": "address",
              "name": "to",
              "type": "address"
            },
            {
              "internalType": "address",
              "name": "nftContract",
              "type": "address"
            },
            {
              "internalType": "uint256",
              "name": "nftTokenId",
              "type": "uint256"
            },
            {
              "internalType": "uint256",
              "name": "nftChainId",
              "type": "uint256"
            },
            {
              "internalType": "uint256",
              "name": "targetChainId",
              "type": "uint256"
            },
            {
              "internalType": "uint256",
              "name": "value",
              "type": "uint256"
            },
            {
              "internalType": "uint256",
              "name": "gas",
              "type": "uint256"
            },
            {
              "internalType": "uint256",
              "name": "nonce",
              "type": "uint256"
            },
            {
              "internalType": "bytes",
              "name": "data",
              "type": "bytes"
            }
          ],
          "internalType": "struct IForwardRequest.ERC721ForwardRequest",
          "name": "req",
          "type": "tuple"
        },
        {
          "internalType": "bytes",
          "name": "signature",
          "type": "bytes"
        }
      ],
      "name": "execute",
      "outputs": [
        {
          "internalType": "bool",
          "name": "",
          "type": "bool"
        },
        {
          "internalType": "bytes",
          "name": "",
          "type": "bytes"
        }
      ],
      "stateMutability": "payable",
      "type": "function"
    },
    {
      "inputs": [
        {
          "internalType": "bytes",
          "name": "response",
          "type": "bytes"
        },
        {
          "internalType": "bytes",
          "name": "extraData",
          "type": "bytes"
        }
      ],
      "name": "executeWithProof",
      "outputs": [
        {
          "internalType": "bool",
          "name": "",
          "type": "bool"
        },
        {
          "internalType": "bytes",
          "name": "",
          "type": "bytes"
        }
      ],
      "stateMutability": "payable",
      "type": "function"
    },
    {
      "inputs": [],
      "name": "getChainId",
      "outputs": [
        {
          "internalType": "uint256",
          "name": "id",
          "type": "uint256"
        }
      ],
      "stateMutability": "view",
      "type": "function"
    },
    {
      "inputs": [
        {
          "internalType": "address",
          "name": "from",
          "type": "address"
        }
      ],
      "name": "getNonce",
      "outputs": [
        {
          "internalType": "uint256",
          "name": "",
          "type": "uint256"
        }
      ],
      "stateMutability": "view",
      "type": "function"
    },
    {
      "inputs": [
        {
          "internalType": "bytes32",
          "name": "role",
          "type": "bytes32"
        }
      ],
      "name": "getRoleAdmin",
      "outputs": [
        {
          "internalType": "bytes32",
          "name": "",
          "type": "bytes32"
        }
      ],
      "stateMutability": "view",
      "type": "function"
    },
    {
      "inputs": [
        {
          "internalType": "bytes32",
          "name": "role",
          "type": "bytes32"
        },
        {
          "internalType": "address",
          "name": "account",
          "type": "address"
        }
      ],
      "name": "grantRole",
      "outputs": [],
      "stateMutability": "nonpayable",
      "type": "function"
    },
    {
      "inputs": [
        {
          "internalType": "bytes32",
          "name": "role",
          "type": "bytes32"
        },
        {
          "internalType": "address",
          "name": "account",
          "type": "address"
        }
      ],
      "name": "hasRole",
      "outputs": [
        {
          "internalType": "bool",
          "name": "",
          "type": "bool"
        }
      ],
      "stateMutability": "view",
      "type": "function"
    },
    {
      "inputs": [
        {
          "internalType": "address",
          "name": "vault",
          "type": "address"
        },
        {
          "internalType": "address",
          "name": "delegate",
          "type": "address"
        }
      ],
      "name": "isAuthorized",
      "outputs": [
        {
          "internalType": "bool",
          "name": "",
          "type": "bool"
        }
      ],
      "stateMutability": "view",
      "type": "function"
    },
    {
      "inputs": [],
      "name": "ownershipSigner",
      "outputs": [
        {
          "internalType": "address",
          "name": "",
          "type": "address"
        }
      ],
      "stateMutability": "view",
      "type": "function"
    },
    {
      "inputs": [
        {
          "components": [
            {
              "internalType": "address",
              "name": "from",
              "type": "address"
            },
            {
              "internalType": "address",
              "name": "authorizer",
              "type": "address"
            },
            {
              "internalType": "address",
              "name": "to",
              "type": "address"
            },
            {
              "internalType": "address",
              "name": "nftContract",
              "type": "address"
            },
            {
              "internalType": "uint256",
              "name": "nftTokenId",
              "type": "uint256"
            },
            {
              "internalType": "uint256",
              "name": "nftChainId",
              "type": "uint256"
            },
            {
              "internalType": "uint256",
              "name": "targetChainId",
              "type": "uint256"
            },
            {
              "internalType": "uint256",
              "name": "value",
              "type": "uint256"
            },
            {
              "internalType": "uint256",
              "name": "gas",
              "type": "uint256"
            },
            {
              "internalType": "uint256",
              "name": "nonce",
              "type": "uint256"
            },
            {
              "internalType": "bytes",
              "name": "data",
              "type": "bytes"
            }
          ],
          "internalType": "struct IForwardRequest.ERC721ForwardRequest",
          "name": "req",
          "type": "tuple"
        },
        {
          "internalType": "bytes",
          "name": "signature",
          "type": "bytes"
        }
      ],
      "name": "preflight",
      "outputs": [],
      "stateMutability": "view",
      "type": "function"
    },
    {
      "inputs": [
        {
          "internalType": "bytes32",
          "name": "role",
          "type": "bytes32"
        },
        {
          "internalType": "address",
          "name": "account",
          "type": "address"
        }
      ],
      "name": "renounceRole",
      "outputs": [],
      "stateMutability": "nonpayable",
      "type": "function"
    },
    {
      "inputs": [
        {
          "internalType": "bytes32",
          "name": "role",
          "type": "bytes32"
        },
        {
          "internalType": "address",
          "name": "account",
          "type": "address"
        }
      ],
      "name": "revokeRole",
      "outputs": [],
      "stateMutability": "nonpayable",
      "type": "function"
    },
    {
      "inputs": [
        {
          "internalType": "address",
          "name": "registry",
          "type": "address"
        }
      ],
      "name": "setDelegationRegistry",
      "outputs": [],
      "stateMutability": "nonpayable",
      "type": "function"
    },
    {
      "inputs": [
        {
          "internalType": "address",
          "name": "newSigner",
          "type": "address"
        }
      ],
      "name": "setOwnershipSigner",
      "outputs": [],
      "stateMutability": "nonpayable",
      "type": "function"
    },
    {
      "inputs": [
        {
          "internalType": "bytes4",
          "name": "interfaceId",
          "type": "bytes4"
        }
      ],
      "name": "supportsInterface",
      "outputs": [
        {
          "internalType": "bool",
          "name": "",
          "type": "bool"
        }
      ],
      "stateMutability": "view",
      "type": "function"
    },
    {
      "inputs": [
        {
          "internalType": "uint256",
          "name": "",
          "type": "uint256"
        }
      ],
      "name": "urls",
      "outputs": [
        {
          "internalType": "string",
          "name": "",
          "type": "string"
        }
      ],
      "stateMutability": "view",
      "type": "function"
    },
    {
      "inputs": [
        {
          "components": [
            {
              "internalType": "address",
              "name": "from",
              "type": "address"
            },
            {
              "internalType": "address",
              "name": "authorizer",
              "type": "address"
            },
            {
              "internalType": "address",
              "name": "to",
              "type": "address"
            },
            {
              "internalType": "address",
              "name": "nftContract",
              "type": "address"
            },
            {
              "internalType": "uint256",
              "name": "nftTokenId",
              "type": "uint256"
            },
            {
              "internalType": "uint256",
              "name": "nftChainId",
              "type": "uint256"
            },
            {
              "internalType": "uint256",
              "name": "targetChainId",
              "type": "uint256"
            },
            {
              "internalType": "uint256",
              "name": "value",
              "type": "uint256"
            },
            {
              "internalType": "uint256",
              "name": "gas",
              "type": "uint256"
            },
            {
              "internalType": "uint256",
              "name": "nonce",
              "type": "uint256"
            },
            {
              "internalType": "bytes",
              "name": "data",
              "type": "bytes"
            }
          ],
          "internalType": "struct IForwardRequest.ERC721ForwardRequest",
          "name": "req",
          "type": "tuple"
        },
        {
          "internalType": "bytes",
          "name": "signature",
          "type": "bytes"
        }
      ],
      "name": "verify",
      "outputs": [
        {
          "internalType": "bool",
          "name": "",
          "type": "bool"
        }
      ],
      "stateMutability": "view",
      "type": "function"
    },
    {
      "inputs": [
        {
          "components": [
            {
              "internalType": "address",
              "name": "from",
              "type": "address"
            },
            {
              "internalType": "address",
              "name": "authorizer",
              "type": "address"
            },
            {
              "internalType": "address",
              "name": "to",
              "type": "address"
            },
            {
              "internalType": "address",
              "name": "nftContract",
              "type": "address"
            },
            {
              "internalType": "uint256",
              "name": "nftTokenId",
              "type": "uint256"
            },
            {
              "internalType": "uint256",
              "name": "nftChainId",
              "type": "uint256"
            },
            {
              "internalType": "uint256",
              "name": "targetChainId",
              "type": "uint256"
            },
            {
              "internalType": "uint256",
              "name": "value",
              "type": "uint256"
            },
            {
              "internalType": "uint256",
              "name": "gas",
              "type": "uint256"
            },
            {
              "internalType": "uint256",
              "name": "nonce",
              "type": "uint256"
            },
            {
              "internalType": "bytes",
              "name": "data",
              "type": "bytes"
            }
          ],
          "internalType": "struct IForwardRequest.ERC721ForwardRequest",
          "name": "req",
          "type": "tuple"
        },
        {
          "internalType": "bytes",
          "name": "signature",
          "type": "bytes"
        },
        {
          "internalType": "uint256",
          "name": "timestamp",
          "type": "uint256"
        }
      ],
      "name": "verifyOwnershipProof",
      "outputs": [
        {
          "internalType": "bool",
          "name": "",
          "type": "bool"
        }
      ],
      "stateMutability": "view",
      "type": "function"
    }
  ],
  "transactionHash": "0x9b798b4d55ffa39cdea6a62ac557f6f53d97f9bf4e7fc01eaaa6c134806fac25",
  "args": [
    [
      "https://middleware.nfight.xyz/"
    ]
  ],
  "numDeployments": 1,
  "solcInputHash": "095d45b3795a93fb4e5f751f742d2b0b",
  "bytecode": "0x6101206040523480156200001257600080fd5b506040516200287338038062002873833981016040819052620000359162000361565b604080518082018252601481527f476c6f62616c456e747279466f727761726465720000000000000000000000006020808301918252835180850185526005815264302e302e3160d81b90820152825190912060c08181527fae209a0b48f21c054280f2455d32cf309387644879d9acbd8ffc19916381188560e08190524660a081815287517f36c25de3e541d5d970f66e4210d728721220fff5c077cc6cd008b3a0c62adab7818801819052818a019690965260608101939093523060808085019190915283820192909252875180840390910181529190920190955284519490920193909320905261010091909152816200013460003362000191565b620001607fa49807205ce4d355092ef5a8a18f56e8913cf4a201fbe287825b095693c217753362000191565b600180546001600160a01b0319163317905580516200018790600390602084019062000241565b5050505062000600565b6200019d8282620001a1565b5050565b6000828152602081815260408083206001600160a01b038516845290915290205460ff166200019d576000828152602081815260408083206001600160a01b03851684529091529020805460ff19166001179055620001fd3390565b6001600160a01b0316816001600160a01b0316837f2f8788117e7eff1d82e926ec794901d17c78024a50270940304540a733656f0d60405160405180910390a45050565b8280548282559060005260206000209081019282156200028c579160200282015b828111156200028c57825182906200027b908262000534565b509160200191906001019062000262565b506200029a9291506200029e565b5090565b808211156200029a576000620002b58282620002bf565b506001016200029e565b508054620002cd90620004a5565b6000825580601f10620002de575050565b601f016020900490600052602060002090810190620002fe919062000301565b50565b5b808211156200029a576000815560010162000302565b634e487b7160e01b600052604160045260246000fd5b604051601f8201601f191681016001600160401b038111828210171562000359576200035962000318565b604052919050565b600060208083850312156200037557600080fd5b82516001600160401b03808211156200038d57600080fd5b8185019150601f8681840112620003a357600080fd5b825182811115620003b857620003b862000318565b8060051b620003c98682016200032e565b918252848101860191868101908a841115620003e457600080fd5b87870192505b838310156200049757825186811115620004045760008081fd5b8701603f81018c13620004175760008081fd5b88810151878111156200042e576200042e62000318565b62000441818801601f19168b016200032e565b81815260408e81848601011115620004595760008081fd5b60005b8381101562000479578481018201518382018e01528c016200045c565b505060009181018b01919091528352509187019190870190620003ea565b9a9950505050505050505050565b600181811c90821680620004ba57607f821691505b602082108103620004db57634e487b7160e01b600052602260045260246000fd5b50919050565b601f8211156200052f57600081815260208120601f850160051c810160208610156200050a5750805b601f850160051c820191505b818110156200052b5782815560010162000516565b5050505b505050565b81516001600160401b0381111562000550576200055062000318565b6200056881620005618454620004a5565b84620004e1565b602080601f831160018114620005a05760008415620005875750858301515b600019600386901b1c1916600185901b1785556200052b565b600085815260208120601f198616915b82811015620005d157888601518255948401946001909101908401620005b0565b5085821015620005f05787850151600019600388901b60f8161c191681555b5050505050600190811b01905550565b60805160a05160c05160e0516101005161222e620006456000396000610803015260006108520152600061082d015260006107b2015260006107da015261222e6000f3fe60806040526004361061014b5760003560e01c8063796676be116100b6578063a217fddf1161006f578063a217fddf146103f6578063d547741f1461040b578063d66df8f01461042b578063dbf0eeef1461044b578063dbf42df71461046c578063f2cde3ef1461047f57600080fd5b8063796676be146103345780637b134b4c1461036157806381902564146103765780638c4a7b1b1461039657806391d14854146103b657806395cb1c2d146103d657600080fd5b806336568abe1161010857806336568abe146102605780634254188c146102805780635c0dfff6146102a057806365e4ad9e146102c057806373aa9e94146102e057806375b238fc1461030057600080fd5b806301ffc9a71461015057806312ce42fd14610185578063248a9ca3146101b75780632d0335ab146101f55780632f2ff15d1461022b5780633408e4701461024d575b600080fd5b34801561015c57600080fd5b5061017061016b3660046116f3565b61049f565b60405190151581526020015b60405180910390f35b34801561019157600080fd5b506001546001600160a01b03165b6040516001600160a01b03909116815260200161017c565b3480156101c357600080fd5b506101e76101d236600461171d565b60009081526020819052604090206001015490565b60405190815260200161017c565b34801561020157600080fd5b506101e7610210366004611752565b6001600160a01b031660009081526002602052604090205490565b34801561023757600080fd5b5061024b61024636600461176d565b6104d6565b005b34801561025957600080fd5b50466101e7565b34801561026c57600080fd5b5061024b61027b36600461176d565b610500565b34801561028c57600080fd5b5061024b61029b366004611752565b610583565b3480156102ac57600080fd5b506101e76102bb366004611799565b6105ee565b3480156102cc57600080fd5b506101706102db366004611803565b610632565b3480156102ec57600080fd5b5061024b6102fb366004611752565b6106b5565b34801561030c57600080fd5b506101e77fa49807205ce4d355092ef5a8a18f56e8913cf4a201fbe287825b095693c2177581565b34801561034057600080fd5b5061035461034f36600461171d565b610702565b60405161017c919061187d565b34801561036d57600080fd5b506101e76107ae565b34801561038257600080fd5b50610170610391366004611a2c565b6108a0565b3480156103a257600080fd5b506101706103b1366004611adb565b610990565b3480156103c257600080fd5b506101706103d136600461176d565b6109e2565b3480156103e257600080fd5b5061024b6103f1366004611adb565b610a0b565b34801561040257600080fd5b506101e7600081565b34801561041757600080fd5b5061024b61042636600461176d565b610b0a565b34801561043757600080fd5b5060045461019f906001600160a01b031681565b61045e610459366004611b4d565b610b2f565b60405161017c929190611bb9565b61045e61047a366004611adb565b610cfc565b34801561048b57600080fd5b5061024b61049a366004611752565b610f04565b60006001600160e01b03198216637965db0b60e01b14806104d057506301ffc9a760e01b6001600160e01b03198316145b92915050565b6000828152602081905260409020600101546104f181610f4d565b6104fb8383610f5a565b505050565b6001600160a01b03811633146105755760405162461bcd60e51b815260206004820152602f60248201527f416363657373436f6e74726f6c3a2063616e206f6e6c792072656e6f756e636560448201526e103937b632b9903337b91039b2b63360891b60648201526084015b60405180910390fd5b61057f8282610fde565b5050565b60048054604051630d0bdc7d60e31b81526001600160a01b03848116938201939093526001602482015291169063685ee3e890604401600060405180830381600087803b1580156105d357600080fd5b505af11580156105e7573d6000803e3d6000fd5b5050505050565b6000878787878787468860405160200161060f989796959493929190611bd4565b604051602081830303815290604052805190602001209050979650505050505050565b60048054604051634e1cade160e11b81526001600160a01b0384811693820193909352848316602482015260009290911690639c395bc290604401602060405180830381865afa15801561068a573d6000803e3d6000fd5b505050506040513d601f19601f820116820180604052508101906106ae9190611c1f565b9392505050565b7fa49807205ce4d355092ef5a8a18f56e8913cf4a201fbe287825b095693c217756106df81610f4d565b50600480546001600160a01b0319166001600160a01b0392909216919091179055565b6003818154811061071257600080fd5b90600052602060002001600091509050805461072d90611c41565b80601f016020809104026020016040519081016040528092919081815260200182805461075990611c41565b80156107a65780601f1061077b576101008083540402835291602001916107a6565b820191906000526020600020905b81548152906001019060200180831161078957829003601f168201915b505050505081565b60007f000000000000000000000000000000000000000000000000000000000000000046036107fc57507f000000000000000000000000000000000000000000000000000000000000000090565b50604080517f00000000000000000000000000000000000000000000000000000000000000006020808301919091527f0000000000000000000000000000000000000000000000000000000000000000828401527f000000000000000000000000000000000000000000000000000000000000000060608301523060808301524660a0808401919091528351808403909101815260c0909201909252805191012090565b60006102586108af8342611c91565b106108e45760405162461bcd60e51b81526020600482015260056024820152645374616c6560d81b604482015260640161056c565b6000610964610911866000015187602001518861012001518960a001518a606001518b608001518a6105ee565b6040517f19457468657265756d205369676e6564204d6573736167653a0a3332000000006020820152603c8101829052600090605c01604051602081830303815290604052805190602001209050919050565b6001549091506001600160a01b031661097d8286611043565b6001600160a01b03161495945050505050565b60006109da61099e85611ca4565b84848080601f01602080910402602001604051908101604052809392919081815260200183838082843760009201919091525061106792505050565b949350505050565b6000918252602082815260408084206001600160a01b0393909316845291905290205460ff1690565b610a16838383610990565b610a3357604051638baa579f60e01b815260040160405180910390fd5b306003610a436020860186611752565b610a536040870160208801611752565b60026000610a6460208a018a611752565b6001600160a01b0316815260208101919091526040016000205460a0880135610a9360808a0160608b01611752565b89608001354642604051602001610ab1989796959493929190611bd4565b60405160208183030381529060405263dbf0eeef60e01b42878787604051602001610adf9493929190611d1f565b60408051601f1981840301815290829052630556f18360e41b825261056c9594939291600401611e24565b600082815260208190526040902060010154610b2581610f4d565b6104fb8383610fde565b60006060818080610b4286880188611f68565b925092509250610b51826111a6565b610b6d576040516282b42960e81b815260040160405180910390fd5b610b778282611067565b610b9457604051638baa579f60e01b815260040160405180910390fd5b610bd6828a8a8080601f0160208091040260200160405190810160405280939291908181526020018383808284376000920191909152508892506108a0915050565b610bf357604051630f1f82e960e31b815260040160405180910390fd5b81516001600160a01b031660009081526002602052604081208054909190610c1a90611fd5565b9190508190555060008083604001516001600160a01b031684610100015160008661014001518760a00151886080015189606001518a60200151604051602001610c68959493929190611fee565b60408051601f1981840301815290829052610c829161203b565b600060405180830381858888f193505050503d8060008114610cc0576040519150601f19603f3d011682016040523d82523d6000602084013e610cc5565b606091505b5091509150603f846101000151610cdc9190612057565b5a11610cea57610cea612079565b90955093505050505b94509492505050565b60006060610d48610d0c86611ca4565b85858080601f01602080910402602001604051908101604052809392919081815260200183838082843760009201919091525061106792505050565b610d6557604051638baa579f60e01b815260040160405180910390fd5b610d756040860160208701611752565b6001600160a01b0316610d8b6020870187611752565b6001600160a01b031614158015610db05750610dae610da986611ca4565b6111a6565b155b15610dcd576040516282b42960e81b815260040160405180910390fd5b610ddd610120860135600161208f565b60026000610dee6020890189611752565b6001600160a01b03166001600160a01b0316815260200190815260200160002081905550600080866040016020810190610e289190611752565b6001600160a01b031661010088013560e0890135610e4a6101408b018b6120a2565b60008060008e6020016020810190610e629190611752565b604051602001610e77969594939291906120e9565b60408051601f1981840301815290829052610e919161203b565b600060405180830381858888f193505050503d8060008114610ecf576040519150601f19603f3d011682016040523d82523d6000602084013e610ed4565b606091505b509092509050610eea603f610100890135612057565b5a11610ef857610ef8612079565b90969095509350505050565b7fa49807205ce4d355092ef5a8a18f56e8913cf4a201fbe287825b095693c21775610f2e81610f4d565b600180546001600160a01b0319166001600160a01b0384161790555050565b610f57813361124e565b50565b610f6482826109e2565b61057f576000828152602081815260408083206001600160a01b03851684529091529020805460ff19166001179055610f9a3390565b6001600160a01b0316816001600160a01b0316837f2f8788117e7eff1d82e926ec794901d17c78024a50270940304540a733656f0d60405160405180910390a45050565b610fe882826109e2565b1561057f576000828152602081815260408083206001600160a01b0385168085529252808320805460ff1916905551339285917ff6391f5c32d9c69d2a47ea670b442974b53935d1edc7fd64eb21e047a839171b9190a45050565b600080600061105285856112a7565b9150915061105f816112ec565b509392505050565b6000806111548361114e7f43fa348c6c9d3f16a4580fbb7f1b7f0432ed8cdc844564275311b61f50661ea08760400151886000015189602001518a606001518b61012001518c60a001518d608001518e60c001518f6101400151805190602001206040516020016111339a99989796959493929190998a526001600160a01b0398891660208b015296881660408a0152948716606089015292909516608087015260a086015260c085019390935260e08401929092526101008301919091526101208201526101400190565b60405160208183030381529060405280519060200120611436565b90611043565b61012085015185516001600160a01b0316600090815260026020526040902054919250148015611190575083516001600160a01b038281169116145b80156109da5750468460c0015114949350505050565b600081600001516001600160a01b031682602001516001600160a01b0316036111d157506001919050565b6004805483516020850151604051634e1cade160e11b81526001600160a01b0392831694810194909452811660248401521690639c395bc290604401602060405180830381865afa15801561122a573d6000803e3d6000fd5b505050506040513d601f19601f820116820180604052508101906104d09190611c1f565b61125882826109e2565b61057f5761126581611484565b611270836020611496565b604051602001611281929190612129565b60408051601f198184030181529082905262461bcd60e51b825261056c9160040161187d565b60008082516041036112dd5760208301516040840151606085015160001a6112d187828585611632565b945094505050506112e5565b506000905060025b9250929050565b60008160048111156113005761130061219e565b036113085750565b600181600481111561131c5761131c61219e565b036113695760405162461bcd60e51b815260206004820152601860248201527f45434453413a20696e76616c6964207369676e61747572650000000000000000604482015260640161056c565b600281600481111561137d5761137d61219e565b036113ca5760405162461bcd60e51b815260206004820152601f60248201527f45434453413a20696e76616c6964207369676e6174757265206c656e67746800604482015260640161056c565b60038160048111156113de576113de61219e565b03610f575760405162461bcd60e51b815260206004820152602260248201527f45434453413a20696e76616c6964207369676e6174757265202773272076616c604482015261756560f01b606482015260840161056c565b60006104d06114436107ae565b8360405161190160f01b6020820152602281018390526042810182905260009060620160405160208183030381529060405280519060200120905092915050565b60606104d06001600160a01b03831660145b606060006114a58360026121b4565b6114b090600261208f565b67ffffffffffffffff8111156114c8576114c8611890565b6040519080825280601f01601f1916602001820160405280156114f2576020820181803683370190505b509050600360fc1b8160008151811061150d5761150d6121cb565b60200101906001600160f81b031916908160001a905350600f60fb1b8160018151811061153c5761153c6121cb565b60200101906001600160f81b031916908160001a90535060006115608460026121b4565b61156b90600161208f565b90505b60018111156115e3576f181899199a1a9b1b9c1cb0b131b232b360811b85600f166010811061159f5761159f6121cb565b1a60f81b8282815181106115b5576115b56121cb565b60200101906001600160f81b031916908160001a90535060049490941c936115dc816121e1565b905061156e565b5083156106ae5760405162461bcd60e51b815260206004820181905260248201527f537472696e67733a20686578206c656e67746820696e73756666696369656e74604482015260640161056c565b6000807f7fffffffffffffffffffffffffffffff5d576e7357a4501ddfe92f46681b20a08311156116695750600090506003610cf3565b6040805160008082526020820180845289905260ff881692820192909252606081018690526080810185905260019060a0016020604051602081039080840390855afa1580156116bd573d6000803e3d6000fd5b5050604051601f1901519150506001600160a01b0381166116e657600060019250925050610cf3565b9660009650945050505050565b60006020828403121561170557600080fd5b81356001600160e01b0319811681146106ae57600080fd5b60006020828403121561172f57600080fd5b5035919050565b80356001600160a01b038116811461174d57600080fd5b919050565b60006020828403121561176457600080fd5b6106ae82611736565b6000806040838503121561178057600080fd5b8235915061179060208401611736565b90509250929050565b600080600080600080600060e0888a0312156117b457600080fd5b6117bd88611736565b96506117cb60208901611736565b955060408801359450606088013593506117e760808901611736565b925060a0880135915060c0880135905092959891949750929550565b6000806040838503121561181657600080fd5b61181f83611736565b915061179060208401611736565b60005b83811015611848578181015183820152602001611830565b50506000910152565b6000815180845261186981602086016020860161182d565b601f01601f19169290920160200192915050565b6020815260006106ae6020830184611851565b634e487b7160e01b600052604160045260246000fd5b604051610160810167ffffffffffffffff811182821017156118ca576118ca611890565b60405290565b600082601f8301126118e157600080fd5b813567ffffffffffffffff808211156118fc576118fc611890565b604051601f8301601f19908116603f0116810190828211818310171561192457611924611890565b8160405283815286602085880101111561193d57600080fd5b836020870160208301376000602085830101528094505050505092915050565b6000610160828403121561197057600080fd5b6119786118a6565b905061198382611736565b815261199160208301611736565b60208201526119a260408301611736565b60408201526119b360608301611736565b60608201526080820135608082015260a082013560a082015260c082013560c082015260e082013560e08201526101008083013581830152506101208083013581830152506101408083013567ffffffffffffffff811115611a1457600080fd5b611a20858286016118d0565b82840152505092915050565b600080600060608486031215611a4157600080fd5b833567ffffffffffffffff80821115611a5957600080fd5b611a658783880161195d565b94506020860135915080821115611a7b57600080fd5b50611a88868287016118d0565b925050604084013590509250925092565b60008083601f840112611aab57600080fd5b50813567ffffffffffffffff811115611ac357600080fd5b6020830191508360208285010111156112e557600080fd5b600080600060408486031215611af057600080fd5b833567ffffffffffffffff80821115611b0857600080fd5b908501906101608288031215611b1d57600080fd5b90935060208501359080821115611b3357600080fd5b50611b4086828701611a99565b9497909650939450505050565b60008060008060408587031215611b6357600080fd5b843567ffffffffffffffff80821115611b7b57600080fd5b611b8788838901611a99565b90965094506020870135915080821115611ba057600080fd5b50611bad87828801611a99565b95989497509550505050565b82151581526040602082015260006109da6040830184611851565b6001600160a01b0398891681529688166020880152604087019590955260608601939093529416608084015260a083019390935260c082019290925260e08101919091526101000190565b600060208284031215611c3157600080fd5b815180151581146106ae57600080fd5b600181811c90821680611c5557607f821691505b602082108103611c7557634e487b7160e01b600052602260045260246000fd5b50919050565b634e487b7160e01b600052601160045260246000fd5b818103818111156104d0576104d0611c7b565b60006104d0368361195d565b6000808335601e19843603018112611cc757600080fd5b830160208101925035905067ffffffffffffffff811115611ce757600080fd5b8036038213156112e557600080fd5b81835281816020850137506000828201602090810191909152601f909101601f19169091010190565b84815260606020820152611d4660608201611d3986611736565b6001600160a01b03169052565b6000611d5460208601611736565b6001600160a01b03166080830152611d6e60408601611736565b6001600160a01b031660a0830152611d8860608601611736565b6001600160a01b03811660c084015250608085013560e083015261010060a08601358184015261012060c08701358185015261014060e088013581860152610160838901358187015282890135610180870152611de7828a018a611cb0565b94509250806101a08701525050611e036101c085018383611cf6565b9150508281036040840152611e19818587611cf6565b979650505050505050565b600060a0820160018060a01b0388168352602060a08185015281885480845260c0860191506005935060c081851b87010160008b8152848120815b84811015611f195789840360bf1901865281548390600181811c9080831680611e8957607f831692505b8b83108103611ea657634e487b7160e01b88526022600452602488fd5b82895260208901818015611ec15760018114611ed657611f00565b60ff19861682528415158f1b82019650611f00565b6000898152602090208a5b86811015611efa57815484820152908501908f01611ee1565b83019750505b505050988a019892965050509190910190600101611e5f565b5050508681036040880152611f2e818b611851565b945050505050611f4a60608401866001600160e01b0319169052565b8281036080840152611f5c8185611851565b98975050505050505050565b600080600060608486031215611f7d57600080fd5b83359250602084013567ffffffffffffffff80821115611f9c57600080fd5b611fa88783880161195d565b93506040860135915080821115611fbe57600080fd5b50611fcb868287016118d0565b9150509250925092565b600060018201611fe757611fe7611c7b565b5060010190565b60008651612000818460208b0161182d565b919091019485525060208401929092526bffffffffffffffffffffffff19606091821b8116604085015291901b166054820152606801919050565b6000825161204d81846020870161182d565b9190910192915050565b60008261207457634e487b7160e01b600052601260045260246000fd5b500490565b634e487b7160e01b600052600160045260246000fd5b808201808211156104d0576104d0611c7b565b6000808335601e198436030181126120b957600080fd5b83018035915067ffffffffffffffff8211156120d457600080fd5b6020019150368190038213156112e557600080fd5b858782379094019283526020830191909152606090811b6bffffffffffffffffffffffff19908116604084015292901b9091166054820152606801919050565b7f416363657373436f6e74726f6c3a206163636f756e742000000000000000000081526000835161216181601785016020880161182d565b7001034b99036b4b9b9b4b733903937b6329607d1b601791840191820152835161219281602884016020880161182d565b01602801949350505050565b634e487b7160e01b600052602160045260246000fd5b80820281158282048414176104d0576104d0611c7b565b634e487b7160e01b600052603260045260246000fd5b6000816121f0576121f0611c7b565b50600019019056fea2646970667358221220bc29d1f41dc051b4bc746d137deba22e559a327bf95a8ad8cb1bf5cbf7a6a26f64736f6c63430008110033",
  "devdoc": {
    "kind": "dev",
    "methods": {
      "_domainSeparatorV4()": {
        "details": "Returns the domain separator for the current chain."
      },
      "createMessage(address,address,uint256,uint256,address,uint256,uint256)": {
        "details": "The RPC server uses this view function to create the ownership proof",
        "params": {
          "authorizer": "the address that currently owns the L1 NFT",
          "nftChainId": "the chainId for the nftContract",
          "nftContract": "the contract address for the NFT being utilized",
          "nonce": "the meta-transaction nonce for account",
          "signer": "the address that currently owns the L1 NFT",
          "timestamp": "the timestamp from the OffchainLookup error",
          "tokenId": "the tokenId from nftContract for the NFT being utilized"
        },
        "returns": {
          "_0": "the message _ownershipSigner should sign"
        }
      },
      "executeWithProof(bytes,bytes)": {
        "details": "The RPC call and re-submission should be handled by your Relayer client",
        "params": {
          "extraData": "The unaltered bytes from OffchainLookup::extraData",
          "response": "The unaltered bytes reponse from a call made to an RPC url from OffchainLookup::urls"
        }
      },
      "getRoleAdmin(bytes32)": {
        "details": "Returns the admin role that controls `role`. See {grantRole} and {revokeRole}. To change a role's admin, use {_setRoleAdmin}."
      },
      "grantRole(bytes32,address)": {
        "details": "Grants `role` to `account`. If `account` had not been already granted `role`, emits a {RoleGranted} event. Requirements: - the caller must have ``role``'s admin role. May emit a {RoleGranted} event."
      },
      "hasRole(bytes32,address)": {
        "details": "Returns `true` if `account` has been granted `role`."
      },
      "ownershipSigner()": {
        "returns": {
          "_0": "the ownership proof signer address"
        }
      },
      "preflight((address,address,address,address,uint256,uint256,uint256,uint256,uint256,uint256,bytes),bytes)": {
        "details": "Per EIP-3668, a valid signature will cause a revert with useful error params."
      },
      "renounceRole(bytes32,address)": {
        "details": "Revokes `role` from the calling account. Roles are often managed via {grantRole} and {revokeRole}: this function's purpose is to provide a mechanism for accounts to lose their privileges if they are compromised (such as when a trusted device is misplaced). If the calling account had been revoked `role`, emits a {RoleRevoked} event. Requirements: - the caller must be `account`. May emit a {RoleRevoked} event."
      },
      "revokeRole(bytes32,address)": {
        "details": "Revokes `role` from `account`. If `account` had been granted `role`, emits a {RoleRevoked} event. Requirements: - the caller must have ``role``'s admin role. May emit a {RoleRevoked} event."
      },
      "supportsInterface(bytes4)": {
        "details": "See {IERC165-supportsInterface}."
      },
      "verify((address,address,address,address,uint256,uint256,uint256,uint256,uint256,uint256,bytes),bytes)": {
        "details": "Useful for transactions where the signer is not using a specific NFT, but values are still required in the signature - use the zero address for nftContract and 0 for tokenId"
      },
      "verifyOwnershipProof((address,address,address,address,uint256,uint256,uint256,uint256,uint256,uint256,bytes),bytes,uint256)": {
        "details": "Ensures that _ownershipSigner signed a message containing (nftOwner OR authorized address, nonce, nftContract, tokenId)",
        "params": {
          "req": "structured data submitted by EOA making a meta-transaction request",
          "signature": "the signature proof created by the ownership signer EOA"
        }
      }
    },
    "version": 1
  },
  "userdoc": {
    "kind": "user",
    "methods": {
      "createMessage(address,address,uint256,uint256,address,uint256,uint256)": {
        "notice": "Construct message that _ownershipSigner must sign as ownership proof"
      },
      "createSession(address)": {
        "notice": "Allow `authorized` to use your NFTs in a game for `length` seconds. Your NFTs         will not be held in custody or approved for transfer."
      },
      "executeWithProof(bytes,bytes)": {
        "notice": "Re-submit a valid meta-tx request with trust-minimized proof to execute the transaction."
      },
      "getNonce(address)": {
        "notice": "Get current nonce for EOA"
      },
      "isAuthorized(address,address)": {
        "notice": "Get current session for Primary EOA"
      },
      "ownershipSigner()": {
        "notice": "Get ownershipSigner address"
      },
      "preflight((address,address,address,address,uint256,uint256,uint256,uint256,uint256,uint256,bytes),bytes)": {
        "notice": "Submit a meta-tx request and signature to check validity and receive a response with data useful for fetching a trusted proof per EIP-3668."
      },
      "setDelegationRegistry(address)": {
        "notice": "Change the Delegation source"
      },
      "setOwnershipSigner(address)": {
        "notice": "Change the ownership signer"
      },
      "verify((address,address,address,address,uint256,uint256,uint256,uint256,uint256,uint256,bytes),bytes)": {
        "notice": "Submit a meta-tx request where a proof of ownership is not required."
      },
      "verifyOwnershipProof((address,address,address,address,uint256,uint256,uint256,uint256,uint256,uint256,bytes),bytes,uint256)": {
        "notice": "Verify signed OffchainLookup proof against meta-tx request data"
      }
    },
    "version": 1
  },
  "storageLayout": {
    "storage": [
      {
        "astId": 1247,
        "contract": "src/GlobalEntryForwarder/GlobalEntryForwarder.sol:GlobalEntryForwarder",
        "label": "_roles",
        "offset": 0,
        "slot": "0",
        "type": "t_mapping(t_bytes32,t_struct(RoleData)1242_storage)"
      },
      {
        "astId": 1114,
        "contract": "src/GlobalEntryForwarder/GlobalEntryForwarder.sol:GlobalEntryForwarder",
        "label": "_ownershipSigner",
        "offset": 0,
        "slot": "1",
        "type": "t_address"
      },
      {
        "astId": 357,
        "contract": "src/GlobalEntryForwarder/GlobalEntryForwarder.sol:GlobalEntryForwarder",
        "label": "_nonces",
        "offset": 0,
        "slot": "2",
        "type": "t_mapping(t_address,t_uint256)"
      },
      {
        "astId": 360,
        "contract": "src/GlobalEntryForwarder/GlobalEntryForwarder.sol:GlobalEntryForwarder",
        "label": "urls",
        "offset": 0,
        "slot": "3",
        "type": "t_array(t_string_storage)dyn_storage"
      },
      {
        "astId": 363,
        "contract": "src/GlobalEntryForwarder/GlobalEntryForwarder.sol:GlobalEntryForwarder",
        "label": "DelegationRegistry",
        "offset": 0,
        "slot": "4",
        "type": "t_contract(IDelegationRegistry)1058"
      }
    ],
    "types": {
      "t_address": {
        "encoding": "inplace",
        "label": "address",
        "numberOfBytes": "20"
      },
      "t_array(t_string_storage)dyn_storage": {
        "base": "t_string_storage",
        "encoding": "dynamic_array",
        "label": "string[]",
        "numberOfBytes": "32"
      },
      "t_bool": {
        "encoding": "inplace",
        "label": "bool",
        "numberOfBytes": "1"
      },
      "t_bytes32": {
        "encoding": "inplace",
        "label": "bytes32",
        "numberOfBytes": "32"
      },
      "t_contract(IDelegationRegistry)1058": {
        "encoding": "inplace",
        "label": "contract IDelegationRegistry",
        "numberOfBytes": "20"
      },
      "t_mapping(t_address,t_bool)": {
        "encoding": "mapping",
        "key": "t_address",
        "label": "mapping(address => bool)",
        "numberOfBytes": "32",
        "value": "t_bool"
      },
      "t_mapping(t_address,t_uint256)": {
        "encoding": "mapping",
        "key": "t_address",
        "label": "mapping(address => uint256)",
        "numberOfBytes": "32",
        "value": "t_uint256"
      },
      "t_mapping(t_bytes32,t_struct(RoleData)1242_storage)": {
        "encoding": "mapping",
        "key": "t_bytes32",
        "label": "mapping(bytes32 => struct AccessControl.RoleData)",
        "numberOfBytes": "32",
        "value": "t_struct(RoleData)1242_storage"
      },
      "t_string_storage": {
        "encoding": "bytes",
        "label": "string",
        "numberOfBytes": "32"
      },
      "t_struct(RoleData)1242_storage": {
        "encoding": "inplace",
        "label": "struct AccessControl.RoleData",
        "members": [
          {
            "astId": 1239,
            "contract": "src/GlobalEntryForwarder/GlobalEntryForwarder.sol:GlobalEntryForwarder",
            "label": "members",
            "offset": 0,
            "slot": "0",
            "type": "t_mapping(t_address,t_bool)"
          },
          {
            "astId": 1241,
            "contract": "src/GlobalEntryForwarder/GlobalEntryForwarder.sol:GlobalEntryForwarder",
            "label": "adminRole",
            "offset": 0,
            "slot": "1",
            "type": "t_bytes32"
          }
        ],
        "numberOfBytes": "64"
      },
      "t_uint256": {
        "encoding": "inplace",
        "label": "uint256",
        "numberOfBytes": "32"
      }
    }
  }
}