{
  "address": "0xc231c1F12fd42D0aB66eDb28e6b040A923b75f1b",
  "abi": [
    {
      "inputs": [
        {
          "internalType": "address",
          "name": "_communityAddress",
          "type": "address"
        },
        {
          "internalType": "uint8",
          "name": "_chainId",
          "type": "uint8"
        },
        {
          "internalType": "address",
          "name": "_trustedForwarder",
          "type": "address"
        }
      ],
      "stateMutability": "nonpayable",
      "type": "constructor"
    },
    {
      "inputs": [],
      "name": "Empty",
      "type": "error"
    },
    {
      "anonymous": false,
      "inputs": [
        {
          "indexed": false,
          "internalType": "uint256",
          "name": "proposalId",
          "type": "uint256"
        }
      ],
      "name": "ProposalCanceled",
      "type": "event"
    },
    {
      "anonymous": false,
      "inputs": [
        {
          "indexed": false,
          "internalType": "uint256",
          "name": "proposalId",
          "type": "uint256"
        },
        {
          "indexed": false,
          "internalType": "address",
          "name": "proposer",
          "type": "address"
        },
        {
          "indexed": false,
          "internalType": "address[]",
          "name": "targets",
          "type": "address[]"
        },
        {
          "indexed": false,
          "internalType": "uint256[]",
          "name": "values",
          "type": "uint256[]"
        },
        {
          "indexed": false,
          "internalType": "string[]",
          "name": "signatures",
          "type": "string[]"
        },
        {
          "indexed": false,
          "internalType": "bytes[]",
          "name": "calldatas",
          "type": "bytes[]"
        },
        {
          "indexed": false,
          "internalType": "uint256",
          "name": "startBlock",
          "type": "uint256"
        },
        {
          "indexed": false,
          "internalType": "uint256",
          "name": "endBlock",
          "type": "uint256"
        },
        {
          "indexed": false,
          "internalType": "string",
          "name": "description",
          "type": "string"
        }
      ],
      "name": "ProposalCreated",
      "type": "event"
    },
    {
      "anonymous": false,
      "inputs": [
        {
          "indexed": false,
          "internalType": "uint256",
          "name": "proposalId",
          "type": "uint256"
        }
      ],
      "name": "ProposalExecuted",
      "type": "event"
    },
    {
      "anonymous": false,
      "inputs": [
        {
          "indexed": true,
          "internalType": "address",
          "name": "voter",
          "type": "address"
        },
        {
          "indexed": false,
          "internalType": "uint256",
          "name": "proposalId",
          "type": "uint256"
        },
        {
          "indexed": false,
          "internalType": "uint8",
          "name": "support",
          "type": "uint8"
        },
        {
          "indexed": false,
          "internalType": "uint256",
          "name": "weight",
          "type": "uint256"
        },
        {
          "indexed": false,
          "internalType": "string",
          "name": "reason",
          "type": "string"
        }
      ],
      "name": "VoteCast",
      "type": "event"
    },
    {
      "anonymous": false,
      "inputs": [
        {
          "indexed": true,
          "internalType": "address",
          "name": "voter",
          "type": "address"
        },
        {
          "indexed": false,
          "internalType": "uint256",
          "name": "proposalId",
          "type": "uint256"
        },
        {
          "indexed": false,
          "internalType": "uint8",
          "name": "support",
          "type": "uint8"
        },
        {
          "indexed": false,
          "internalType": "uint256",
          "name": "weight",
          "type": "uint256"
        },
        {
          "indexed": false,
          "internalType": "string",
          "name": "reason",
          "type": "string"
        },
        {
          "indexed": false,
          "internalType": "bytes",
          "name": "params",
          "type": "bytes"
        }
      ],
      "name": "VoteCastWithParams",
      "type": "event"
    },
    {
      "inputs": [],
      "name": "BALLOT_TYPEHASH",
      "outputs": [
        {
          "internalType": "bytes32",
          "name": "",
          "type": "bytes32"
        }
      ],
      "stateMutability": "view",
      "type": "function"
    },
    {
      "inputs": [],
      "name": "COUNTING_MODE",
      "outputs": [
        {
          "internalType": "string",
          "name": "",
          "type": "string"
        }
      ],
      "stateMutability": "pure",
      "type": "function"
    },
    {
      "inputs": [],
      "name": "EXTENDED_BALLOT_TYPEHASH",
      "outputs": [
        {
          "internalType": "bytes32",
          "name": "",
          "type": "bytes32"
        }
      ],
      "stateMutability": "view",
      "type": "function"
    },
    {
      "inputs": [
        {
          "internalType": "uint256",
          "name": "proposalId",
          "type": "uint256"
        }
      ],
      "name": "cancel",
      "outputs": [],
      "stateMutability": "nonpayable",
      "type": "function"
    },
    {
      "inputs": [
        {
          "internalType": "uint256",
          "name": "proposalId",
          "type": "uint256"
        },
        {
          "internalType": "uint8",
          "name": "support",
          "type": "uint8"
        }
      ],
      "name": "castVote",
      "outputs": [
        {
          "internalType": "uint256",
          "name": "",
          "type": "uint256"
        }
      ],
      "stateMutability": "nonpayable",
      "type": "function"
    },
    {
      "inputs": [
        {
          "internalType": "uint256",
          "name": "proposalId",
          "type": "uint256"
        },
        {
          "internalType": "uint8",
          "name": "support",
          "type": "uint8"
        },
        {
          "internalType": "uint8",
          "name": "v",
          "type": "uint8"
        },
        {
          "internalType": "bytes32",
          "name": "r",
          "type": "bytes32"
        },
        {
          "internalType": "bytes32",
          "name": "s",
          "type": "bytes32"
        }
      ],
      "name": "castVoteBySig",
      "outputs": [
        {
          "internalType": "uint256",
          "name": "",
          "type": "uint256"
        }
      ],
      "stateMutability": "nonpayable",
      "type": "function"
    },
    {
      "inputs": [
        {
          "internalType": "uint256",
          "name": "proposalId",
          "type": "uint256"
        },
        {
          "internalType": "uint8",
          "name": "support",
          "type": "uint8"
        },
        {
          "internalType": "string",
          "name": "reason",
          "type": "string"
        }
      ],
      "name": "castVoteWithReason",
      "outputs": [
        {
          "internalType": "uint256",
          "name": "",
          "type": "uint256"
        }
      ],
      "stateMutability": "nonpayable",
      "type": "function"
    },
    {
      "inputs": [
        {
          "internalType": "uint256",
          "name": "proposalId",
          "type": "uint256"
        },
        {
          "internalType": "uint8",
          "name": "support",
          "type": "uint8"
        },
        {
          "internalType": "string",
          "name": "reason",
          "type": "string"
        },
        {
          "internalType": "bytes",
          "name": "params",
          "type": "bytes"
        }
      ],
      "name": "castVoteWithReasonAndParams",
      "outputs": [
        {
          "internalType": "uint256",
          "name": "",
          "type": "uint256"
        }
      ],
      "stateMutability": "nonpayable",
      "type": "function"
    },
    {
      "inputs": [
        {
          "internalType": "uint256",
          "name": "proposalId",
          "type": "uint256"
        },
        {
          "internalType": "uint8",
          "name": "support",
          "type": "uint8"
        },
        {
          "internalType": "string",
          "name": "reason",
          "type": "string"
        },
        {
          "internalType": "bytes",
          "name": "params",
          "type": "bytes"
        },
        {
          "internalType": "uint8",
          "name": "v",
          "type": "uint8"
        },
        {
          "internalType": "bytes32",
          "name": "r",
          "type": "bytes32"
        },
        {
          "internalType": "bytes32",
          "name": "s",
          "type": "bytes32"
        }
      ],
      "name": "castVoteWithReasonAndParamsBySig",
      "outputs": [
        {
          "internalType": "uint256",
          "name": "",
          "type": "uint256"
        }
      ],
      "stateMutability": "nonpayable",
      "type": "function"
    },
    {
      "inputs": [],
      "name": "community",
      "outputs": [
        {
          "internalType": "address",
          "name": "contractAddress",
          "type": "address"
        },
        {
          "internalType": "uint8",
          "name": "chainId",
          "type": "uint8"
        }
      ],
      "stateMutability": "view",
      "type": "function"
    },
    {
      "inputs": [
        {
          "internalType": "address[]",
          "name": "targets",
          "type": "address[]"
        },
        {
          "internalType": "uint256[]",
          "name": "values",
          "type": "uint256[]"
        },
        {
          "internalType": "bytes[]",
          "name": "calldatas",
          "type": "bytes[]"
        },
        {
          "internalType": "bytes32",
          "name": "descriptionHash",
          "type": "bytes32"
        }
      ],
      "name": "execute",
      "outputs": [
        {
          "internalType": "uint256",
          "name": "",
          "type": "uint256"
        }
      ],
      "stateMutability": "payable",
      "type": "function"
    },
    {
      "inputs": [
        {
          "internalType": "uint256",
          "name": "proposalId",
          "type": "uint256"
        }
      ],
      "name": "execute",
      "outputs": [],
      "stateMutability": "payable",
      "type": "function"
    },
    {
      "inputs": [
        {
          "internalType": "uint256",
          "name": "proposalId",
          "type": "uint256"
        }
      ],
      "name": "getActions",
      "outputs": [
        {
          "internalType": "address[]",
          "name": "targets",
          "type": "address[]"
        },
        {
          "internalType": "uint256[]",
          "name": "values",
          "type": "uint256[]"
        },
        {
          "internalType": "string[]",
          "name": "signatures",
          "type": "string[]"
        },
        {
          "internalType": "bytes[]",
          "name": "calldatas",
          "type": "bytes[]"
        }
      ],
      "stateMutability": "view",
      "type": "function"
    },
    {
      "inputs": [
        {
          "internalType": "uint256",
          "name": "proposalId",
          "type": "uint256"
        },
        {
          "internalType": "address",
          "name": "voter",
          "type": "address"
        }
      ],
      "name": "getReceipt",
      "outputs": [
        {
          "components": [
            {
              "internalType": "bool",
              "name": "hasVoted",
              "type": "bool"
            },
            {
              "internalType": "uint8",
              "name": "support",
              "type": "uint8"
            },
            {
              "internalType": "uint96",
              "name": "votes",
              "type": "uint96"
            },
            {
              "internalType": "uint256",
              "name": "tokenId",
              "type": "uint256"
            }
          ],
          "internalType": "struct IGovernorCompatibilityNFTGlobalEntry.Receipt",
          "name": "",
          "type": "tuple"
        }
      ],
      "stateMutability": "view",
      "type": "function"
    },
    {
      "inputs": [
        {
          "internalType": "address",
          "name": "account",
          "type": "address"
        },
        {
          "internalType": "uint256",
          "name": "blockNumber",
          "type": "uint256"
        }
      ],
      "name": "getVotes",
      "outputs": [
        {
          "internalType": "uint256",
          "name": "",
          "type": "uint256"
        }
      ],
      "stateMutability": "view",
      "type": "function"
    },
    {
      "inputs": [
        {
          "internalType": "address",
          "name": "account",
          "type": "address"
        },
        {
          "internalType": "uint256",
          "name": "blockNumber",
          "type": "uint256"
        },
        {
          "internalType": "bytes",
          "name": "params",
          "type": "bytes"
        }
      ],
      "name": "getVotesWithParams",
      "outputs": [
        {
          "internalType": "uint256",
          "name": "",
          "type": "uint256"
        }
      ],
      "stateMutability": "view",
      "type": "function"
    },
    {
      "inputs": [
        {
          "internalType": "uint256",
          "name": "proposalId",
          "type": "uint256"
        },
        {
          "internalType": "address",
          "name": "account",
          "type": "address"
        }
      ],
      "name": "hasVoted",
      "outputs": [
        {
          "internalType": "bool",
          "name": "",
          "type": "bool"
        }
      ],
      "stateMutability": "view",
      "type": "function"
    },
    {
      "inputs": [
        {
          "internalType": "address[]",
          "name": "targets",
          "type": "address[]"
        },
        {
          "internalType": "uint256[]",
          "name": "values",
          "type": "uint256[]"
        },
        {
          "internalType": "bytes[]",
          "name": "calldatas",
          "type": "bytes[]"
        },
        {
          "internalType": "bytes32",
          "name": "descriptionHash",
          "type": "bytes32"
        }
      ],
      "name": "hashProposal",
      "outputs": [
        {
          "internalType": "uint256",
          "name": "",
          "type": "uint256"
        }
      ],
      "stateMutability": "pure",
      "type": "function"
    },
    {
      "inputs": [
        {
          "internalType": "address",
          "name": "forwarder",
          "type": "address"
        }
      ],
      "name": "isTrustedForwarder",
      "outputs": [
        {
          "internalType": "bool",
          "name": "",
          "type": "bool"
        }
      ],
      "stateMutability": "view",
      "type": "function"
    },
    {
      "inputs": [],
      "name": "listProposalIds",
      "outputs": [
        {
          "internalType": "uint256[]",
          "name": "",
          "type": "uint256[]"
        }
      ],
      "stateMutability": "view",
      "type": "function"
    },
    {
      "inputs": [],
      "name": "name",
      "outputs": [
        {
          "internalType": "string",
          "name": "",
          "type": "string"
        }
      ],
      "stateMutability": "view",
      "type": "function"
    },
    {
      "inputs": [],
      "name": "numProposals",
      "outputs": [
        {
          "internalType": "uint256",
          "name": "",
          "type": "uint256"
        }
      ],
      "stateMutability": "view",
      "type": "function"
    },
    {
      "inputs": [
        {
          "internalType": "address",
          "name": "",
          "type": "address"
        },
        {
          "internalType": "address",
          "name": "",
          "type": "address"
        },
        {
          "internalType": "uint256[]",
          "name": "",
          "type": "uint256[]"
        },
        {
          "internalType": "uint256[]",
          "name": "",
          "type": "uint256[]"
        },
        {
          "internalType": "bytes",
          "name": "",
          "type": "bytes"
        }
      ],
      "name": "onERC1155BatchReceived",
      "outputs": [
        {
          "internalType": "bytes4",
          "name": "",
          "type": "bytes4"
        }
      ],
      "stateMutability": "nonpayable",
      "type": "function"
    },
    {
      "inputs": [
        {
          "internalType": "address",
          "name": "",
          "type": "address"
        },
        {
          "internalType": "address",
          "name": "",
          "type": "address"
        },
        {
          "internalType": "uint256",
          "name": "",
          "type": "uint256"
        },
        {
          "internalType": "uint256",
          "name": "",
          "type": "uint256"
        },
        {
          "internalType": "bytes",
          "name": "",
          "type": "bytes"
        }
      ],
      "name": "onERC1155Received",
      "outputs": [
        {
          "internalType": "bytes4",
          "name": "",
          "type": "bytes4"
        }
      ],
      "stateMutability": "nonpayable",
      "type": "function"
    },
    {
      "inputs": [
        {
          "internalType": "address",
          "name": "",
          "type": "address"
        },
        {
          "internalType": "address",
          "name": "",
          "type": "address"
        },
        {
          "internalType": "uint256",
          "name": "",
          "type": "uint256"
        },
        {
          "internalType": "bytes",
          "name": "",
          "type": "bytes"
        }
      ],
      "name": "onERC721Received",
      "outputs": [
        {
          "internalType": "bytes4",
          "name": "",
          "type": "bytes4"
        }
      ],
      "stateMutability": "nonpayable",
      "type": "function"
    },
    {
      "inputs": [],
      "name": "owner",
      "outputs": [
        {
          "internalType": "address",
          "name": "",
          "type": "address"
        }
      ],
      "stateMutability": "view",
      "type": "function"
    },
    {
      "inputs": [
        {
          "internalType": "uint256",
          "name": "proposalId",
          "type": "uint256"
        }
      ],
      "name": "proposalDeadline",
      "outputs": [
        {
          "internalType": "uint256",
          "name": "",
          "type": "uint256"
        }
      ],
      "stateMutability": "view",
      "type": "function"
    },
    {
      "inputs": [
        {
          "internalType": "uint256",
          "name": "",
          "type": "uint256"
        }
      ],
      "name": "proposalIds",
      "outputs": [
        {
          "internalType": "uint256",
          "name": "",
          "type": "uint256"
        }
      ],
      "stateMutability": "view",
      "type": "function"
    },
    {
      "inputs": [
        {
          "internalType": "uint256",
          "name": "proposalId",
          "type": "uint256"
        }
      ],
      "name": "proposalSnapshot",
      "outputs": [
        {
          "internalType": "uint256",
          "name": "",
          "type": "uint256"
        }
      ],
      "stateMutability": "view",
      "type": "function"
    },
    {
      "inputs": [],
      "name": "proposalThreshold",
      "outputs": [
        {
          "internalType": "uint256",
          "name": "",
          "type": "uint256"
        }
      ],
      "stateMutability": "pure",
      "type": "function"
    },
    {
      "inputs": [
        {
          "internalType": "uint256",
          "name": "proposalId",
          "type": "uint256"
        }
      ],
      "name": "proposals",
      "outputs": [
        {
          "internalType": "uint256",
          "name": "id",
          "type": "uint256"
        },
        {
          "internalType": "address",
          "name": "proposer",
          "type": "address"
        },
        {
          "internalType": "uint256",
          "name": "eta",
          "type": "uint256"
        },
        {
          "internalType": "uint256",
          "name": "startBlock",
          "type": "uint256"
        },
        {
          "internalType": "uint256",
          "name": "endBlock",
          "type": "uint256"
        },
        {
          "internalType": "uint256",
          "name": "forVotes",
          "type": "uint256"
        },
        {
          "internalType": "uint256",
          "name": "againstVotes",
          "type": "uint256"
        },
        {
          "internalType": "uint256",
          "name": "abstainVotes",
          "type": "uint256"
        },
        {
          "internalType": "bool",
          "name": "canceled",
          "type": "bool"
        },
        {
          "internalType": "bool",
          "name": "executed",
          "type": "bool"
        },
        {
          "internalType": "string",
          "name": "description",
          "type": "string"
        }
      ],
      "stateMutability": "view",
      "type": "function"
    },
    {
      "inputs": [
        {
          "internalType": "address[]",
          "name": "targets",
          "type": "address[]"
        },
        {
          "internalType": "uint256[]",
          "name": "values",
          "type": "uint256[]"
        },
        {
          "internalType": "bytes[]",
          "name": "calldatas",
          "type": "bytes[]"
        },
        {
          "internalType": "string",
          "name": "description",
          "type": "string"
        }
      ],
      "name": "propose",
      "outputs": [
        {
          "internalType": "uint256",
          "name": "",
          "type": "uint256"
        }
      ],
      "stateMutability": "nonpayable",
      "type": "function"
    },
    {
      "inputs": [
        {
          "internalType": "address[]",
          "name": "targets",
          "type": "address[]"
        },
        {
          "internalType": "uint256[]",
          "name": "values",
          "type": "uint256[]"
        },
        {
          "internalType": "string[]",
          "name": "signatures",
          "type": "string[]"
        },
        {
          "internalType": "bytes[]",
          "name": "calldatas",
          "type": "bytes[]"
        },
        {
          "internalType": "string",
          "name": "description",
          "type": "string"
        }
      ],
      "name": "propose",
      "outputs": [
        {
          "internalType": "uint256",
          "name": "",
          "type": "uint256"
        }
      ],
      "stateMutability": "nonpayable",
      "type": "function"
    },
    {
      "inputs": [
        {
          "internalType": "uint256",
          "name": "proposalId",
          "type": "uint256"
        }
      ],
      "name": "queue",
      "outputs": [],
      "stateMutability": "nonpayable",
      "type": "function"
    },
    {
      "inputs": [
        {
          "internalType": "uint256",
          "name": "",
          "type": "uint256"
        }
      ],
      "name": "quorum",
      "outputs": [
        {
          "internalType": "uint256",
          "name": "",
          "type": "uint256"
        }
      ],
      "stateMutability": "pure",
      "type": "function"
    },
    {
      "inputs": [],
      "name": "quorumVotes",
      "outputs": [
        {
          "internalType": "uint256",
          "name": "",
          "type": "uint256"
        }
      ],
      "stateMutability": "view",
      "type": "function"
    },
    {
      "inputs": [
        {
          "internalType": "address",
          "name": "target",
          "type": "address"
        },
        {
          "internalType": "uint256",
          "name": "value",
          "type": "uint256"
        },
        {
          "internalType": "bytes",
          "name": "data",
          "type": "bytes"
        }
      ],
      "name": "relay",
      "outputs": [],
      "stateMutability": "payable",
      "type": "function"
    },
    {
      "inputs": [
        {
          "internalType": "address",
          "name": "trustedForwarder",
          "type": "address"
        }
      ],
      "name": "setTrustedForwarder",
      "outputs": [],
      "stateMutability": "nonpayable",
      "type": "function"
    },
    {
      "inputs": [
        {
          "internalType": "uint256",
          "name": "proposalId",
          "type": "uint256"
        }
      ],
      "name": "state",
      "outputs": [
        {
          "internalType": "enum IGovernor.ProposalState",
          "name": "",
          "type": "uint8"
        }
      ],
      "stateMutability": "view",
      "type": "function"
    },
    {
      "inputs": [
        {
          "internalType": "bytes4",
          "name": "interfaceId",
          "type": "bytes4"
        }
      ],
      "name": "supportsInterface",
      "outputs": [
        {
          "internalType": "bool",
          "name": "",
          "type": "bool"
        }
      ],
      "stateMutability": "view",
      "type": "function"
    },
    {
      "inputs": [],
      "name": "version",
      "outputs": [
        {
          "internalType": "string",
          "name": "",
          "type": "string"
        }
      ],
      "stateMutability": "view",
      "type": "function"
    },
    {
      "inputs": [],
      "name": "votingDelay",
      "outputs": [
        {
          "internalType": "uint256",
          "name": "",
          "type": "uint256"
        }
      ],
      "stateMutability": "pure",
      "type": "function"
    },
    {
      "inputs": [],
      "name": "votingPeriod",
      "outputs": [
        {
          "internalType": "uint256",
          "name": "",
          "type": "uint256"
        }
      ],
      "stateMutability": "pure",
      "type": "function"
    },
    {
      "stateMutability": "payable",
      "type": "receive"
    }
  ],
  "transactionHash": "0xb53428ce746a1cc2c1e0d6c9412fe210ff6436c1703ec46343ceafa6e5c737c4",
  "args": [
    "0x3193046D450Dade9ca17F88db4A72230140E64dC",
    "1",
    "0x3E4404d874fa73659cCfFc21Ac4839EcA21F0b4c"
  ],
  "numDeployments": 3,
  "solcInputHash": "517a90215f549362b9f16438dc2c5516",
  "bytecode": "0x6101406040523480156200001257600080fd5b506040516200447d3803806200447d8339810160408190526200003591620001ac565b60408051808201909152600b81526a27232a23b7bb32b93737b960a91b6020820152819080620000796040805180820190915260018152603160f81b602082015290565b60018054336001600160a01b031991821617909155600080549091166001600160a01b038616179055815160209283012081519183019190912060e08290526101008190524660a0818152604080517f8b73c3c69bb8fe3d512ecc4cf759cc79239f7b179b0ffacaa9a75d522b39400f818801819052818301969096526060810194909452608080850193909352308483018190528151808603909301835260c0948501909152815191909501209052919091526101205260026200013f8282620002a2565b5050604080518082019091526001600160a01b0390941680855260ff90931660209094018490525050600a8054600160a01b9093026001600160a81b03199093169091179190911790556200036e565b80516001600160a01b0381168114620001a757600080fd5b919050565b600080600060608486031215620001c257600080fd5b620001cd846200018f565b9250602084015160ff81168114620001e457600080fd5b9150620001f4604085016200018f565b90509250925092565b634e487b7160e01b600052604160045260246000fd5b600181811c908216806200022857607f821691505b6020821081036200024957634e487b7160e01b600052602260045260246000fd5b50919050565b601f8211156200029d57600081815260208120601f850160051c81016020861015620002785750805b601f850160051c820191505b81811015620002995782815560010162000284565b5050505b505050565b81516001600160401b03811115620002be57620002be620001fd565b620002d681620002cf845462000213565b846200024f565b602080601f8311600181146200030e5760008415620002f55750858301515b600019600386901b1c1916600185901b17855562000299565b600085815260208120601f198616915b828110156200033f578886015182559484019460019091019084016200031e565b50858210156200035e5787850151600019600388901b60f8161c191681555b5050505050600190811b01905550565b60805160a05160c05160e05161010051610120516140bf620003be60003960006123fa01526000612449015260006124240152600061237d015260006123a7015260006123d101526140bf6000f3fe6080604052600436106102605760003560e01c80637b3c71d311610144578063da742228116100b6578063deaaa7cc1161007a578063deaaa7cc146107dc578063e23a9a5214610810578063eb9019d4146108fe578063f23a6e611461091e578063f8ce560a1461094a578063fe0d94c11461096b57600080fd5b8063da742228146106e9578063da95691a14610709578063dc1fb5a514610729578063dd4e2ba514610776578063ddf0b009146107bc57600080fd5b8063a1d01b0011610108578063a1d01b0014610648578063b58131b01461042f578063bc197c811461066a578063c01f9e3714610696578063c28bc2fa146106b6578063c59057e4146106c957600080fd5b80637b3c71d31461057f5780637d5e81e21461059f5780638da5cb5b146105bf5780639a802a6d146105f75780639b644a231461061b57600080fd5b8063328dd982116101dd57806340e58ee5116101a157806340e58ee5146104a657806343859632146104c657806354fd4d50146104e65780635678138814610510578063572b6c05146105305780635f398a141461055f57600080fd5b8063328dd982146103ff5780633932abb11461042f5780633bccf4fd146104435780633e4f49e614610463578063400e39491461049057600080fd5b8063150b7a0211610224578063150b7a021461033f57806324bc1a64146103835780632656227d146103985780632d63f693146103ab5780632fe3e261146103cb57600080fd5b8063013cf08b1461026e57806301ffc9a7146102ae57806302a251a3146102de57806303420181146102fd57806306fdde031461031d57600080fd5b3661026957005b005b600080fd5b34801561027a57600080fd5b5061028e610289366004613139565b610983565b6040516102a59b9a999897969594939291906131a2565b60405180910390f35b3480156102ba57600080fd5b506102ce6102c9366004613213565b610ac4565b60405190151581526020016102a5565b3480156102ea57600080fd5b5061b3cb5b6040519081526020016102a5565b34801561030957600080fd5b506102ef610318366004613350565b610ad5565b34801561032957600080fd5b50610332610bcd565b6040516102a591906133f6565b34801561034b57600080fd5b5061036a61035a366004613420565b630a85bd0160e11b949350505050565b6040516001600160e01b031990911681526020016102a5565b34801561038f57600080fd5b506102ef610c5f565b6102ef6103a63660046135f6565b610c6f565b3480156103b757600080fd5b506102ef6103c6366004613139565b610da0565b3480156103d757600080fd5b506102ef7fb3b3f3b703cd84ce352197dcff232b1b5d3cfb2025ce47cf04742d0651f1af8881565b34801561040b57600080fd5b5061041f61041a366004613139565b610dd7565b6040516102a5949392919061374e565b34801561043b57600080fd5b5060006102ef565b34801561044f57600080fd5b506102ef61045e36600461379b565b611068565b34801561046f57600080fd5b5061048361047e366004613139565b6110de565b6040516102a591906137ff565b34801561049c57600080fd5b506102ef60095481565b3480156104b257600080fd5b506102676104c1366004613139565b6110e9565b3480156104d257600080fd5b506102ce6104e1366004613827565b611402565b3480156104f257600080fd5b506040805180820190915260018152603160f81b6020820152610332565b34801561051c57600080fd5b506102ef61052b366004613853565b611462565b34801561053c57600080fd5b506102ce61054b366004613876565b6000546001600160a01b0391821691161490565b34801561056b57600080fd5b506102ef61057a366004613891565b611492565b34801561058b57600080fd5b506102ef61059a366004613914565b6114e3565b3480156105ab57600080fd5b506102ef6105ba36600461396d565b61153c565b3480156105cb57600080fd5b506001546105df906001600160a01b031681565b6040516001600160a01b0390911681526020016102a5565b34801561060357600080fd5b506102ef610612366004613a0d565b50600192915050565b34801561062757600080fd5b506102ef610636366004613139565b60086020526000908152604090205481565b34801561065457600080fd5b5061065d611609565b6040516102a59190613a63565b34801561067657600080fd5b5061036a610685366004613a76565b63bc197c8160e01b95945050505050565b3480156106a257600080fd5b506102ef6106b1366004613139565b6116a6565b6102676106c4366004613b05565b6116d5565b3480156106d557600080fd5b506102ef6106e43660046135f6565b6117dc565b3480156106f557600080fd5b50610267610704366004613876565b611816565b34801561071557600080fd5b506102ef610724366004613b46565b611878565b34801561073557600080fd5b50600a54610755906001600160a01b03811690600160a01b900460ff1682565b604080516001600160a01b03909316835260ff9091166020830152016102a5565b34801561078257600080fd5b5060408051808201909152601a81527f737570706f72743d627261766f2671756f72756d3d627261766f0000000000006020820152610332565b3480156107c857600080fd5b506102676107d7366004613139565b6118a4565b3480156107e857600080fd5b506102ef7f150214d74d59b7d1e90c73fc22ef3d991dd0a76b046543d4d80ab92d2a50328f81565b34801561081c57600080fd5b506108bd61082b366004613827565b6040805160808101825260008082526020820181905291810182905260608101919091525060009182526006602090815260408084206001600160a01b0393909316845260089092018152918190208151608081018352815460ff8082161515835261010082041694820194909452620100009093046001600160601b03169183019190915260010154606082015290565b6040516102a5919081511515815260208083015160ff16908201526040808301516001600160601b0316908201526060918201519181019190915260800190565b34801561090a57600080fd5b506102ef610919366004613be7565b6118b0565b34801561092a57600080fd5b5061036a610939366004613c11565b63f23a6e6160e01b95945050505050565b34801561095657600080fd5b506102ef610965366004613139565b50601490565b610267610979366004613139565b6118bc565b905090565b806000808080808080808060606109998b610da0565b97506109a48c6116a6565b60008d81526006602081905260408220805460058201549282015460078301546001600160a01b039092169f50949b5091995092975095506109e58e6110de565b905060028160078111156109fb576109fb6137e9565b1494506007816007811115610a1257610a126137e9565b149350600760008f81526020019081526020016000208054610a3390613c75565b80601f0160208091040260200160405190810160405280929190818152602001828054610a5f90613c75565b8015610aac5780601f10610a8157610100808354040283529160200191610aac565b820191906000526020600020905b815481529060010190602001808311610a8f57829003601f168201915b50505050509250505091939597999b90929496989a50565b6000610acf82611b2a565b92915050565b600080610b79610b717fb3b3f3b703cd84ce352197dcff232b1b5d3cfb2025ce47cf04742d0651f1af888c8c8c8c604051610b11929190613ca9565b60405180910390208b80519060200120604051602001610b56959493929190948552602085019390935260ff9190911660408401526060830152608082015260a00190565b60405160208183030381529060405280519060200120611b95565b868686611be3565b9050610bbf8a828b8b8b8080601f0160208091040260200160405190810160405280939291908181526020018383808284376000920191909152508d9250611c01915050565b9a9950505050505050505050565b606060028054610bdc90613c75565b80601f0160208091040260200160405190810160405280929190818152602001828054610c0890613c75565b8015610c555780601f10610c2a57610100808354040283529160200191610c55565b820191906000526020600020905b815481529060010190602001808311610c3857829003601f168201915b5050505050905090565b600061097e610965600143613ccf565b600080610c7e868686866117dc565b90506000610c8b826110de565b90506004816007811115610ca157610ca16137e9565b1480610cbe57506005816007811115610cbc57610cbc6137e9565b145b610d195760405162461bcd60e51b815260206004820152602160248201527f476f7665726e6f723a2070726f706f73616c206e6f74207375636365737366756044820152601b60fa1b60648201526084015b60405180910390fd5b60008281526003602052604090819020600201805460ff19166001179055517f712ae1383f79ac853f8d882153778e0260ef8f03b504e2866e0593e04d2b291f90610d679084815260200190565b60405180910390a1610d7c8288888888611d54565b610d898288888888611de1565b610d968288888888611d54565b5095945050505050565b60008181526003602090815260408083208151928301909152546001600160401b0316908190525b6001600160401b031692915050565b60608060608060006006600087815260200190815260200160002090508060010181600201826003018360040183805480602002602001604051908101604052809291908181526020018280548015610e5957602002820191906000526020600020905b81546001600160a01b03168152600190910190602001808311610e3b575b5050505050935082805480602002602001604051908101604052809291908181526020018280548015610eab57602002820191906000526020600020905b815481526020019060010190808311610e97575b5050505050925081805480602002602001604051908101604052809291908181526020016000905b82821015610f7f578382906000526020600020018054610ef290613c75565b80601f0160208091040260200160405190810160405280929190818152602001828054610f1e90613c75565b8015610f6b5780601f10610f4057610100808354040283529160200191610f6b565b820191906000526020600020905b815481529060010190602001808311610f4e57829003601f168201915b505050505081526020019060010190610ed3565b50505050915080805480602002602001604051908101604052809291908181526020016000905b82821015611052578382906000526020600020018054610fc590613c75565b80601f0160208091040260200160405190810160405280929190818152602001828054610ff190613c75565b801561103e5780601f106110135761010080835404028352916020019161103e565b820191906000526020600020905b81548152906001019060200180831161102157829003601f168201915b505050505081526020019060010190610fa6565b5050505090509450945094509450509193509193565b604080517f150214d74d59b7d1e90c73fc22ef3d991dd0a76b046543d4d80ab92d2a50328f602082015290810186905260ff8516606082015260009081906110b690610b7190608001610b56565b90506110d387828860405180602001604052806000815250611dee565b979650505050505050565b6000610acf82611e1a565b600081815260066020526040902080546001600160a01b031661110a611f2e565b6001600160a01b03161480611138575060008154611136906001600160a01b0316610919600143613ccf565b105b6111945760405162461bcd60e51b815260206004820152602760248201527f476f7665726e6f72427261766f3a2070726f706f7365722061626f76652074686044820152661c995cda1bdb1960ca1b6064820152608401610d10565b6113fd816001018054806020026020016040519081016040528092919081815260200182805480156111ef57602002820191906000526020600020905b81546001600160a01b031681526001909101906020018083116111d1575b50505050508260020180548060200260200160405190810160405280929190818152602001828054801561124257602002820191906000526020600020905b81548152602001906001019080831161122e575b50505050506113f384600301805480602002602001604051908101604052809291908181526020016000905b8282101561131a57838290600052602060002001805461128d90613c75565b80601f01602080910402602001604051908101604052809291908181526020018280546112b990613c75565b80156113065780601f106112db57610100808354040283529160200191611306565b820191906000526020600020905b8154815290600101906020018083116112e957829003601f168201915b50505050508152602001906001019061126e565b50505060048701805460408051602080840282018101909252828152935060009084015b828210156113ea57838290600052602060002001805461135d90613c75565b80601f016020809104026020016040519081016040528092919081815260200182805461138990613c75565b80156113d65780601f106113ab576101008083540402835291602001916113d6565b820191906000526020600020905b8154815290600101906020018083116113b957829003601f168201915b50505050508152602001906001019061133e565b50505050611f38565b84600a015461206a565b505050565b60008281526006602090815260408083206001600160a01b038516845260080190915281205460ff168061145b575060008381526006602090815260408083206001600160a01b038616845260080190915290205460ff165b9392505050565b60008061146d611f2e565b905061148a84828560405180602001604052806000815250611dee565b949350505050565b60008061149d611f2e565b90506110d387828888888080601f0160208091040260200160405190810160405280939291908181526020018383808284376000920191909152508a9250611c01915050565b6000806114ee611f2e565b905061153286828787878080601f016020809104026020016040519081016040528093929190818152602001838380828437600092019190915250611dee92505050565b9695505050505050565b600080546001600160a01b031633146115865760405162461bcd60e51b815260206004820152600c60248201526b155b985d5d1a1bdc9a5e995960a21b6044820152606401610d10565b60006115906120bf565b6040810151600a54919250600160a01b90910460ff161480156115c257508051600a546001600160a01b039081169116145b6115fd5760405162461bcd60e51b815260206004820152600c60248201526b155b985d5d1a1bdc9a5e995960a21b6044820152606401610d10565b61153286868686612148565b606060006009546001600160401b038111156116275761162761329b565b604051908082528060200260200182016040528015611650578160200160208202803683370190505b50905060005b6009548110156116a057600081815260086020526040902054825183908390811061168357611683613ce2565b60209081029190910101528061169881613cf8565b915050611656565b50919050565b60008181526003602090815260408083208151928301909152600101546001600160401b031690819052610dc8565b306116de611f2e565b6001600160a01b0316146117345760405162461bcd60e51b815260206004820152601860248201527f476f7665726e6f723a206f6e6c79476f7665726e616e636500000000000000006044820152606401610d10565b61174b565b8061174460046121b7565b0361173957505b600080856001600160a01b0316858585604051611769929190613ca9565b60006040518083038185875af1925050503d80600081146117a6576040519150601f19603f3d011682016040523d82523d6000602084013e6117ab565b606091505b50915091506117d3828260405180606001604052806028815260200161403b60289139612236565b50505050505050565b6000848484846040516020016117f59493929190613d11565b60408051601f19818403018152919052805160209091012095945050505050565b6001546001600160a01b031633146118565760405162461bcd60e51b815260206004820152600360248201526234303360e81b6044820152606401610d10565b600080546001600160a01b0319166001600160a01b0392909216919091179055565b600061188f611885611f2e565b878787878761224f565b611532868661189e8787611f38565b8561153c565b6118ad816118a4565b50565b600061145b838361234b565b60008181526006602090815260409182902060018101805484518185028101850190955280855291936113fd9390929083018282801561192557602002820191906000526020600020905b81546001600160a01b03168152600190910190602001808311611907575b50505050508260020180548060200260200160405190810160405280929190818152602001828054801561197857602002820191906000526020600020905b815481526020019060010190808311611964575b5050505050611b2084600301805480602002602001604051908101604052809291908181526020016000905b82821015611a505783829060005260206000200180546119c390613c75565b80601f01602080910402602001604051908101604052809291908181526020018280546119ef90613c75565b8015611a3c5780601f10611a1157610100808354040283529160200191611a3c565b820191906000526020600020905b815481529060010190602001808311611a1f57829003601f168201915b5050505050815260200190600101906119a4565b50505060048701805460408051602080840282018101909252828152935060009084015b828210156113ea578382906000526020600020018054611a9390613c75565b80601f0160208091040260200160405190810160405280929190818152602001828054611abf90613c75565b8015611b0c5780601f10611ae157610100808354040283529160200191611b0c565b820191906000526020600020905b815481529060010190602001808311611aef57829003601f168201915b505050505081526020019060010190611a74565b84600a0154610c6f565b60006001600160e01b0319821663bf26d89760e01b1480611b5b57506001600160e01b031982166379dd796f60e01b145b80611b7657506001600160e01b03198216630271189760e51b145b80610acf57506301ffc9a760e01b6001600160e01b0319831614610acf565b6000610acf611ba2612370565b8360405161190160f01b6020820152602281018390526042810182905260009060620160405160208183030381529060405280519060200120905092915050565b6000806000611bf487878787612497565b91509150610d968161255b565b60008581526003602052604081206001611c1a886110de565b6007811115611c2b57611c2b6137e9565b14611c845760405162461bcd60e51b815260206004820152602360248201527f476f7665726e6f723a20766f7465206e6f742063757272656e746c792061637460448201526269766560e81b6064820152608401610d10565b604080516020810190915281546001600160401b031690526001611cab88888884886126a5565b8351600003611d0057866001600160a01b03167fb8e138887d0aa13bab447e82de9d5c1777041ecd21ca36ba824ff1e6c07ddda489888489604051611cf39493929190613d5c565b60405180910390a26110d3565b866001600160a01b03167fe2babfbac5889a709b63bb7f598b324e08bc5a4fb9ec647fb3cbc9ec07eb87128988848989604051611d41959493929190613d84565b60405180910390a2979650505050505050565b611dda565b8451811015611dd857306001600160a01b0316858281518110611d7e57611d7e613ce2565b60200260200101516001600160a01b031603611dc857611dc8838281518110611da957611da9613ce2565b602002602001015180519060200120600461290890919063ffffffff16565b611dd181613cf8565b9050611d59565b505b5050505050565b611dda8585858585612944565b6000611e1185858585611e0c60408051602081019091526000815290565b611c01565b95945050505050565b6000818152600360205260408120600281015460ff1615611e3e5750600792915050565b6002810154610100900460ff1615611e595750600292915050565b6000611e6484610da0565b905080600003611eb65760405162461bcd60e51b815260206004820152601d60248201527f476f7665726e6f723a20756e6b6e6f776e2070726f706f73616c2069640000006044820152606401610d10565b438110611ec7575060009392505050565b6000611ed2856116a6565b9050438110611ee657506001949350505050565b611eef85612a3a565b8015611f135750600085815260066020819052604090912090810154600590910154115b15611f2357506004949350505050565b506003949350505050565b600061097e612a62565b6060600082516001600160401b03811115611f5557611f5561329b565b604051908082528060200260200182016040528015611f8857816020015b6060815260200190600190039081611f735790505b50905060005b845181101561206257848181518110611fa957611fa9613ce2565b60200260200101515160001461201957848181518110611fcb57611fcb613ce2565b602002602001015180519060200120848281518110611fec57611fec613ce2565b6020026020010151604051602001612005929190613dca565b604051602081830303815290604052612034565b83818151811061202b5761202b613ce2565b60200260200101515b82828151811061204657612046613ce2565b60200260200101819052508061205b90613cf8565b9050611f8e565b509392505050565b600080546001600160a01b031633146120b35760405162461bcd60e51b815260206004820152600b60248201526a436f756e7465723a34323960a81b6044820152606401610d10565b611e1185858585612a6c565b6120ec604051806060016040528060006001600160a01b0316815260200160008152602001600081525090565b60008054819081906001600160a01b0316330361211c5760683603359250602836033560601c9050604836033591505b6040518060600160405280826001600160a01b0316815260200183815260200184815250935050505090565b60006121ab612155611f2e565b868686516001600160401b038111156121705761217061329b565b6040519080825280602002602001820160405280156121a357816020015b606081526020019060019003908161218e5790505b50878761224f565b611e1185858585612b8a565b60006121d28254600f81810b600160801b909204900b131590565b156121f057604051631ed9509560e11b815260040160405180910390fd5b508054600f0b6000818152600180840160205260408220805492905583546fffffffffffffffffffffffffffffffff191692016001600160801b03169190911790915590565b6060831561224557508161145b565b61145b8383612e4d565b80516020820120600061226d87876122678888611f38565b856117dc565b6000818152600660205260409020600a810154919250906123405780546001600160a01b0319166001600160a01b038a1617815587516122b690600183019060208b0190612f70565b5086516122cc90600283019060208a0190612fd1565b5085516122e2906003830190602089019061300c565b5084516122f8906004830190602088019061305e565b50600a810183905560095460009081526008602090815260408083208590558483526007909152902061232b8582613e41565b5060096000815461233b90613cf8565b909155505b505050505050505050565b600061145b838361236760408051602081019091526000815290565b60019392505050565b6000306001600160a01b037f0000000000000000000000000000000000000000000000000000000000000000161480156123c957507f000000000000000000000000000000000000000000000000000000000000000046145b156123f357507f000000000000000000000000000000000000000000000000000000000000000090565b50604080517f00000000000000000000000000000000000000000000000000000000000000006020808301919091527f0000000000000000000000000000000000000000000000000000000000000000828401527f000000000000000000000000000000000000000000000000000000000000000060608301524660808301523060a0808401919091528351808403909101815260c0909201909252805191012090565b6000807f7fffffffffffffffffffffffffffffff5d576e7357a4501ddfe92f46681b20a08311156124ce5750600090506003612552565b6040805160008082526020820180845289905260ff881692820192909252606081018690526080810185905260019060a0016020604051602081039080840390855afa158015612522573d6000803e3d6000fd5b5050604051601f1901519150506001600160a01b03811661254b57600060019250925050612552565b9150600090505b94509492505050565b600081600481111561256f5761256f6137e9565b036125775750565b600181600481111561258b5761258b6137e9565b036125d85760405162461bcd60e51b815260206004820152601860248201527f45434453413a20696e76616c6964207369676e617475726500000000000000006044820152606401610d10565b60028160048111156125ec576125ec6137e9565b036126395760405162461bcd60e51b815260206004820152601f60248201527f45434453413a20696e76616c6964207369676e6174757265206c656e677468006044820152606401610d10565b600381600481111561264d5761264d6137e9565b036118ad5760405162461bcd60e51b815260206004820152602260248201527f45434453413a20696e76616c6964207369676e6174757265202773272076616c604482015261756560f01b6064820152608401610d10565b60006126af6120bf565b60209081015160008881526006835260408082206001600160a01b038a16835260088101855281832084845260098201909552912054919350919060ff1680156127615760405162461bcd60e51b815260206004820152603c60248201527f476f7665726e6f72436f6d7061746962696c6974794e4654476c6f62616c456e60448201527f7472793a20746f6b656e20766f746520616c72656164792063617374000000006064820152608401610d10565b815460ff16156127d95760405162461bcd60e51b815260206004820152603e60248201527f476f7665726e6f72436f6d7061746962696c6974794e4654476c6f62616c456e60448201527f7472793a206164647265737320766f746520616c7265616479206361737400006064820152608401610d10565b600084815260098401602052604090208054600160ff199091168117909155825483820186905561ffff191661010060ff8a16021717825561281a86612e77565b82546001600160601b039190911662010000026dffffffffffffffffffffffff00001990911617825560ff871661286a578583600601600082825461285f9190613f00565b909155506123409050565b60001960ff88160161288a578583600501600082825461285f9190613f00565b60011960ff8816016128aa578583600701600082825461285f9190613f00565b60405162461bcd60e51b815260206004820152602d60248201527f476f7665726e6f72436f6d7061746962696c697479427261766f3a20696e766160448201526c6c696420766f7465207479706560981b6064820152608401610d10565b8154600160801b90819004600f0b6000818152600180860160205260409091209390935583546001600160801b03908116939091011602179055565b600060405180606001604052806027815260200161406360279139905060005b85518110156117d35760008087838151811061298257612982613ce2565b60200260200101516001600160a01b03168784815181106129a5576129a5613ce2565b60200260200101518785815181106129bf576129bf613ce2565b60200260200101516040516129d49190613f13565b60006040518083038185875af1925050503d8060008114612a11576040519150601f19603f3d011682016040523d82523d6000602084013e612a16565b606091505b5091509150612a26828286612236565b50505080612a3390613cf8565b9050612964565b60008181526006602052604081206005810154612a5961096585610da0565b11159392505050565b600061097e612ee3565b600080612a7b868686866117dc565b90506000612a88826110de565b90506002816007811115612a9e57612a9e6137e9565b14158015612abe57506006816007811115612abb57612abb6137e9565b14155b8015612adc57506007816007811115612ad957612ad96137e9565b14155b612b285760405162461bcd60e51b815260206004820152601d60248201527f476f7665726e6f723a2070726f706f73616c206e6f74206163746976650000006044820152606401610d10565b60008281526003602052604090819020600201805461ff001916610100179055517f789cf55be980739dad1d0699b93b58e806b51c9d96619bfa8fe0a28abaa7b30c90612b789084815260200190565b60405180910390a15095945050505050565b600080612ba3612b98611f2e565b610919600143613ccf565b1015612c0b5760405162461bcd60e51b815260206004820152603160248201527f476f7665726e6f723a2070726f706f73657220766f7465732062656c6f7720706044820152701c9bdc1bdcd85b081d1a1c995cda1bdb19607a1b6064820152608401610d10565b6000612c2086868686805190602001206117dc565b90508451865114612c435760405162461bcd60e51b8152600401610d1090613f2f565b8351865114612c645760405162461bcd60e51b8152600401610d1090613f2f565b6000865111612cb55760405162461bcd60e51b815260206004820152601860248201527f476f7665726e6f723a20656d7074792070726f706f73616c00000000000000006044820152606401610d10565b600081815260036020908152604091829020825191820190925281546001600160401b03169081905215612d355760405162461bcd60e51b815260206004820152602160248201527f476f7665726e6f723a2070726f706f73616c20616c72656164792065786973746044820152607360f81b6064820152608401610d10565b6000612d4081612f08565b612d4943612f08565b612d539190613f70565b90506000612d6261b3cb612f08565b612d6c9083613f70565b835467ffffffffffffffff19166001600160401b038416178455905060018301805467ffffffffffffffff19166001600160401b0383161790557f7d84a6263ae0d98d3329bd7b46bb4e8d6f98cd35a7adb45c274c8b7fd5ebd5e084612dd0611f2e565b8b8b8d516001600160401b03811115612deb57612deb61329b565b604051908082528060200260200182016040528015612e1e57816020015b6060815260200190600190039081612e095790505b508c88888e604051612e3899989796959493929190613f97565b60405180910390a15091979650505050505050565b815115612e5d5781518083602001fd5b8060405162461bcd60e51b8152600401610d1091906133f6565b60006001600160601b03821115612edf5760405162461bcd60e51b815260206004820152602660248201527f53616665436173743a2076616c756520646f65736e27742066697420696e203960448201526536206269747360d01b6064820152608401610d10565b5090565b600080546001600160a01b03163303612f03575060131936013560601c90565b503390565b60006001600160401b03821115612edf5760405162461bcd60e51b815260206004820152602660248201527f53616665436173743a2076616c756520646f65736e27742066697420696e203660448201526534206269747360d01b6064820152608401610d10565b828054828255906000526020600020908101928215612fc5579160200282015b82811115612fc557825182546001600160a01b0319166001600160a01b03909116178255602090920191600190910190612f90565b50612edf9291506130b0565b828054828255906000526020600020908101928215612fc5579160200282015b82811115612fc5578251825591602001919060010190612ff1565b828054828255906000526020600020908101928215613052579160200282015b8281111561305257825182906130429082613e41565b509160200191906001019061302c565b50612edf9291506130c5565b8280548282559060005260206000209081019282156130a4579160200282015b828111156130a457825182906130949082613e41565b509160200191906001019061307e565b50612edf9291506130e2565b5b80821115612edf57600081556001016130b1565b80821115612edf5760006130d982826130ff565b506001016130c5565b80821115612edf5760006130f682826130ff565b506001016130e2565b50805461310b90613c75565b6000825580601f1061311b575050565b601f0160209004906000526020600020908101906118ad91906130b0565b60006020828403121561314b57600080fd5b5035919050565b60005b8381101561316d578181015183820152602001613155565b50506000910152565b6000815180845261318e816020860160208601613152565b601f01601f19169290920160200192915050565b60006101608d835260018060a01b038d1660208401528b60408401528a60608401528960808401528860a08401528760c08401528660e08401528515156101008401528415156101208401528061014084015261320181840185613176565b9e9d5050505050505050505050505050565b60006020828403121561322557600080fd5b81356001600160e01b03198116811461145b57600080fd5b803560ff8116811461324e57600080fd5b919050565b60008083601f84011261326557600080fd5b5081356001600160401b0381111561327c57600080fd5b60208301915083602082850101111561329457600080fd5b9250929050565b634e487b7160e01b600052604160045260246000fd5b604051601f8201601f191681016001600160401b03811182821017156132d9576132d961329b565b604052919050565b600082601f8301126132f257600080fd5b81356001600160401b0381111561330b5761330b61329b565b61331e601f8201601f19166020016132b1565b81815284602083860101111561333357600080fd5b816020850160208301376000918101602001919091529392505050565b60008060008060008060008060e0898b03121561336c57600080fd5b8835975061337c60208a0161323d565b965060408901356001600160401b038082111561339857600080fd5b6133a48c838d01613253565b909850965060608b01359150808211156133bd57600080fd5b506133ca8b828c016132e1565b9450506133d960808a0161323d565b925060a0890135915060c089013590509295985092959890939650565b60208152600061145b6020830184613176565b80356001600160a01b038116811461324e57600080fd5b6000806000806080858703121561343657600080fd5b61343f85613409565b935061344d60208601613409565b92506040850135915060608501356001600160401b0381111561346f57600080fd5b61347b878288016132e1565b91505092959194509250565b60006001600160401b038211156134a0576134a061329b565b5060051b60200190565b600082601f8301126134bb57600080fd5b813560206134d06134cb83613487565b6132b1565b82815260059290921b840181019181810190868411156134ef57600080fd5b8286015b848110156135115761350481613409565b83529183019183016134f3565b509695505050505050565b600082601f83011261352d57600080fd5b8135602061353d6134cb83613487565b82815260059290921b8401810191818101908684111561355c57600080fd5b8286015b848110156135115780358352918301918301613560565b600082601f83011261358857600080fd5b813560206135986134cb83613487565b82815260059290921b840181019181810190868411156135b757600080fd5b8286015b848110156135115780356001600160401b038111156135da5760008081fd5b6135e88986838b01016132e1565b8452509183019183016135bb565b6000806000806080858703121561360c57600080fd5b84356001600160401b038082111561362357600080fd5b61362f888389016134aa565b9550602087013591508082111561364557600080fd5b6136518883890161351c565b9450604087013591508082111561366757600080fd5b5061367487828801613577565b949793965093946060013593505050565b600081518084526020808501945080840160005b838110156136be5781516001600160a01b031687529582019590820190600101613699565b509495945050505050565b600081518084526020808501945080840160005b838110156136be578151875295820195908201906001016136dd565b600081518084526020808501808196508360051b8101915082860160005b8581101561374157828403895261372f848351613176565b98850198935090840190600101613717565b5091979650505050505050565b6080815260006137616080830187613685565b828103602084015261377381876136c9565b9050828103604084015261378781866136f9565b905082810360608401526110d381856136f9565b600080600080600060a086880312156137b357600080fd5b853594506137c36020870161323d565b93506137d16040870161323d565b94979396509394606081013594506080013592915050565b634e487b7160e01b600052602160045260246000fd5b602081016008831061382157634e487b7160e01b600052602160045260246000fd5b91905290565b6000806040838503121561383a57600080fd5b8235915061384a60208401613409565b90509250929050565b6000806040838503121561386657600080fd5b8235915061384a6020840161323d565b60006020828403121561388857600080fd5b61145b82613409565b6000806000806000608086880312156138a957600080fd5b853594506138b96020870161323d565b935060408601356001600160401b03808211156138d557600080fd5b6138e189838a01613253565b909550935060608801359150808211156138fa57600080fd5b50613907888289016132e1565b9150509295509295909350565b6000806000806060858703121561392a57600080fd5b8435935061393a6020860161323d565b925060408501356001600160401b0381111561395557600080fd5b61396187828801613253565b95989497509550505050565b6000806000806080858703121561398357600080fd5b84356001600160401b038082111561399a57600080fd5b6139a6888389016134aa565b955060208701359150808211156139bc57600080fd5b6139c88883890161351c565b945060408701359150808211156139de57600080fd5b6139ea88838901613577565b93506060870135915080821115613a0057600080fd5b5061347b878288016132e1565b600080600060608486031215613a2257600080fd5b613a2b84613409565b92506020840135915060408401356001600160401b03811115613a4d57600080fd5b613a59868287016132e1565b9150509250925092565b60208152600061145b60208301846136c9565b600080600080600060a08688031215613a8e57600080fd5b613a9786613409565b9450613aa560208701613409565b935060408601356001600160401b0380821115613ac157600080fd5b613acd89838a0161351c565b94506060880135915080821115613ae357600080fd5b613aef89838a0161351c565b935060808801359150808211156138fa57600080fd5b60008060008060608587031215613b1b57600080fd5b613b2485613409565b93506020850135925060408501356001600160401b0381111561395557600080fd5b600080600080600060a08688031215613b5e57600080fd5b85356001600160401b0380821115613b7557600080fd5b613b8189838a016134aa565b96506020880135915080821115613b9757600080fd5b613ba389838a0161351c565b95506040880135915080821115613bb957600080fd5b613bc589838a01613577565b94506060880135915080821115613bdb57600080fd5b613aef89838a01613577565b60008060408385031215613bfa57600080fd5b613c0383613409565b946020939093013593505050565b600080600080600060a08688031215613c2957600080fd5b613c3286613409565b9450613c4060208701613409565b9350604086013592506060860135915060808601356001600160401b03811115613c6957600080fd5b613907888289016132e1565b600181811c90821680613c8957607f821691505b6020821081036116a057634e487b7160e01b600052602260045260246000fd5b8183823760009101908152919050565b634e487b7160e01b600052601160045260246000fd5b81810381811115610acf57610acf613cb9565b634e487b7160e01b600052603260045260246000fd5b600060018201613d0a57613d0a613cb9565b5060010190565b608081526000613d246080830187613685565b8281036020840152613d3681876136c9565b90508281036040840152613d4a81866136f9565b91505082606083015295945050505050565b84815260ff841660208201528260408201526080606082015260006115326080830184613176565b85815260ff8516602082015283604082015260a060608201526000613dac60a0830185613176565b8281036080840152613dbe8185613176565b98975050505050505050565b6001600160e01b0319831681528151600090613ded816004850160208701613152565b919091016004019392505050565b601f8211156113fd57600081815260208120601f850160051c81016020861015613e225750805b601f850160051c820191505b81811015611dd857828155600101613e2e565b81516001600160401b03811115613e5a57613e5a61329b565b613e6e81613e688454613c75565b84613dfb565b602080601f831160018114613ea35760008415613e8b5750858301515b600019600386901b1c1916600185901b178555611dd8565b600085815260208120601f198616915b82811015613ed257888601518255948401946001909101908401613eb3565b5085821015613ef05787850151600019600388901b60f8161c191681555b5050505050600190811b01905550565b80820180821115610acf57610acf613cb9565b60008251613f25818460208701613152565b9190910192915050565b60208082526021908201527f476f7665726e6f723a20696e76616c69642070726f706f73616c206c656e67746040820152600d60fb1b606082015260800190565b6001600160401b03818116838216019080821115613f9057613f90613cb9565b5092915050565b8981526001600160a01b038916602082015261012060408201819052600090613fc28382018b613685565b90508281036060840152613fd6818a6136c9565b90508281036080840152613fea81896136f9565b905082810360a0840152613ffe81886136f9565b6001600160401b0387811660c0860152861660e0850152838103610100850152905061402a8185613176565b9c9b50505050505050505050505056fe476f7665726e6f723a2072656c617920726576657274656420776974686f7574206d657373616765476f7665726e6f723a2063616c6c20726576657274656420776974686f7574206d657373616765a2646970667358221220dd424f09d968cfb80ddcb7004e3683792804e767bc6f80af602cb382533eb20664736f6c63430008110033",
  "devdoc": {
    "errors": {
      "Empty()": [
        {
          "details": "An operation (e.g. {front}) couldn't be completed due to the queue being empty."
        }
      ]
    },
    "kind": "dev",
    "methods": {
      "COUNTING_MODE()": {
        "details": "A description of the possible `support` values for {castVote} and the way these votes are counted, meant to be consumed by UIs to show correct vote options and interpret the results. The string is a URL-encoded sequence of key-value pairs that each describe one aspect, for example `support=bravo&quorum=for,abstain`. There are 2 standard keys: `support` and `quorum`. - `support=bravo` refers to the vote options 0 = Against, 1 = For, 2 = Abstain, as in `GovernorBravo`. - `quorum=bravo` means that only For votes are counted towards quorum. - `quorum=for,abstain` means that both For and Abstain votes are counted towards quorum. If a counting module makes use of encoded `params`, it should  include this under a `params` key with a unique name that describes the behavior. For example: - `params=fractional` might refer to a scheme where votes are divided fractionally between for/against/abstain. - `params=erc721` might refer to a scheme where specific NFTs are delegated to vote. NOTE: The string can be decoded by the standard https://developer.mozilla.org/en-US/docs/Web/API/URLSearchParams[`URLSearchParams`] JavaScript class."
      },
      "cancel(uint256)": {
        "details": "Cancels a proposal only if sender is the proposer, or proposer delegates dropped below proposal threshold."
      },
      "castVote(uint256,uint8)": {
        "details": "See {IGovernor-castVote}."
      },
      "castVoteBySig(uint256,uint8,uint8,bytes32,bytes32)": {
        "details": "See {IGovernor-castVoteBySig}."
      },
      "castVoteWithReason(uint256,uint8,string)": {
        "details": "See {IGovernor-castVoteWithReason}."
      },
      "castVoteWithReasonAndParams(uint256,uint8,string,bytes)": {
        "details": "See {IGovernor-castVoteWithReasonAndParams}."
      },
      "castVoteWithReasonAndParamsBySig(uint256,uint8,string,bytes,uint8,bytes32,bytes32)": {
        "details": "See {IGovernor-castVoteWithReasonAndParamsBySig}."
      },
      "execute(address[],uint256[],bytes[],bytes32)": {
        "details": "See {IGovernor-execute}."
      },
      "execute(uint256)": {
        "details": "See {IGovernorCompatibilityBravo-execute}."
      },
      "getActions(uint256)": {
        "details": "See {IGovernorCompatibilityBravo-getActions}."
      },
      "getReceipt(uint256,address)": {
        "details": "See {IGovernorCompatibilityBravo-getReceipt}."
      },
      "getVotes(address,uint256)": {
        "details": "See {IGovernor-getVotes}."
      },
      "getVotesWithParams(address,uint256,bytes)": {
        "details": "See {IGovernor-getVotesWithParams}."
      },
      "hasVoted(uint256,address)": {
        "details": "See {IGovernor-hasVoted}."
      },
      "hashProposal(address[],uint256[],bytes[],bytes32)": {
        "details": "See {IGovernor-hashProposal}. The proposal id is produced by hashing the ABI encoded `targets` array, the `values` array, the `calldatas` array and the descriptionHash (bytes32 which itself is the keccak256 hash of the description string). This proposal id can be produced from the proposal data which is part of the {ProposalCreated} event. It can even be computed in advance, before the proposal is submitted. Note that the chainId and the governor address are not part of the proposal id computation. Consequently, the same proposal (with same operation and same description) will have the same id if submitted on multiple governors across multiple networks. This also means that in order to execute the same operation twice (on the same governor) the proposer will have to change the description in order to avoid proposal id conflicts."
      },
      "name()": {
        "details": "See {IGovernor-name}."
      },
      "onERC1155BatchReceived(address,address,uint256[],uint256[],bytes)": {
        "details": "See {IERC1155Receiver-onERC1155BatchReceived}."
      },
      "onERC1155Received(address,address,uint256,uint256,bytes)": {
        "details": "See {IERC1155Receiver-onERC1155Received}."
      },
      "onERC721Received(address,address,uint256,bytes)": {
        "details": "See {IERC721Receiver-onERC721Received}."
      },
      "proposalDeadline(uint256)": {
        "details": "See {IGovernor-proposalDeadline}."
      },
      "proposalSnapshot(uint256)": {
        "details": "See {IGovernor-proposalSnapshot}."
      },
      "proposalThreshold()": {
        "details": "Part of the Governor Bravo's interface: _\"The number of votes required in order for a voter to become a proposer\"_."
      },
      "proposals(uint256)": {
        "details": "See {IGovernorCompatibilityBravo-proposals}."
      },
      "propose(address[],uint256[],string[],bytes[],string)": {
        "details": "See {IGovernorCompatibilityBravo-propose}."
      },
      "queue(uint256)": {
        "details": "See {IGovernorCompatibilityBravo-queue}."
      },
      "quorumVotes()": {
        "details": "See {IGovernorCompatibilityBravo-quorumVotes}."
      },
      "relay(address,uint256,bytes)": {
        "details": "Relays a transaction or function call to an arbitrary target. In cases where the governance executor is some contract other than the governor itself, like when using a timelock, this function can be invoked in a governance proposal to recover tokens or Ether that was sent to the governor contract by mistake. Note that if the executor is simply the governor itself, use of `relay` is redundant."
      },
      "state(uint256)": {
        "details": "See {IGovernor-state}."
      },
      "supportsInterface(bytes4)": {
        "details": "See {IERC165-supportsInterface}."
      },
      "version()": {
        "details": "See {IGovernor-version}."
      },
      "votingDelay()": {
        "details": "Delay, in number of block, between the proposal is created and the vote starts. This can be increassed to leave time for users to buy voting power, or delegate it, before the voting of a proposal starts."
      },
      "votingPeriod()": {
        "details": "Delay, in number of blocks, between the vote start and vote ends. NOTE: The {votingDelay} can delay the start of the vote. This must be considered when setting the voting duration compared to the voting delay."
      }
    },
    "version": 1
  },
  "userdoc": {
    "kind": "user",
    "methods": {
      "COUNTING_MODE()": {
        "notice": "module:voting"
      },
      "votingDelay()": {
        "notice": "module:user-config"
      },
      "votingPeriod()": {
        "notice": "module:user-config"
      }
    },
    "version": 1
  },
  "storageLayout": {
    "storage": [
      {
        "astId": 8,
        "contract": "src/NFTGovernor/NFTGovernor.sol:NFTGovernor",
        "label": "_trustedForwarder",
        "offset": 0,
        "slot": "0",
        "type": "t_address"
      },
      {
        "astId": 10,
        "contract": "src/NFTGovernor/NFTGovernor.sol:NFTGovernor",
        "label": "owner",
        "offset": 0,
        "slot": "1",
        "type": "t_address"
      },
      {
        "astId": 255,
        "contract": "src/NFTGovernor/NFTGovernor.sol:NFTGovernor",
        "label": "_name",
        "offset": 0,
        "slot": "2",
        "type": "t_string_storage"
      },
      {
        "astId": 260,
        "contract": "src/NFTGovernor/NFTGovernor.sol:NFTGovernor",
        "label": "_proposals",
        "offset": 0,
        "slot": "3",
        "type": "t_mapping(t_uint256,t_struct(ProposalCore)253_storage)"
      },
      {
        "astId": 263,
        "contract": "src/NFTGovernor/NFTGovernor.sol:NFTGovernor",
        "label": "_governanceCall",
        "offset": 0,
        "slot": "4",
        "type": "t_struct(Bytes32Deque)5617_storage"
      },
      {
        "astId": 5994,
        "contract": "src/NFTGovernor/NFTGovernor.sol:NFTGovernor",
        "label": "_proposalDetails",
        "offset": 0,
        "slot": "6",
        "type": "t_mapping(t_uint256,t_struct(ProposalDetails)5989_storage)"
      },
      {
        "astId": 5998,
        "contract": "src/NFTGovernor/NFTGovernor.sol:NFTGovernor",
        "label": "proposalNames",
        "offset": 0,
        "slot": "7",
        "type": "t_mapping(t_uint256,t_string_storage)"
      },
      {
        "astId": 6002,
        "contract": "src/NFTGovernor/NFTGovernor.sol:NFTGovernor",
        "label": "proposalIds",
        "offset": 0,
        "slot": "8",
        "type": "t_mapping(t_uint256,t_uint256)"
      },
      {
        "astId": 6004,
        "contract": "src/NFTGovernor/NFTGovernor.sol:NFTGovernor",
        "label": "numProposals",
        "offset": 0,
        "slot": "9",
        "type": "t_uint256"
      },
      {
        "astId": 7013,
        "contract": "src/NFTGovernor/NFTGovernor.sol:NFTGovernor",
        "label": "community",
        "offset": 0,
        "slot": "10",
        "type": "t_struct(Community)7010_storage"
      }
    ],
    "types": {
      "t_address": {
        "encoding": "inplace",
        "label": "address",
        "numberOfBytes": "20"
      },
      "t_array(t_address)dyn_storage": {
        "base": "t_address",
        "encoding": "dynamic_array",
        "label": "address[]",
        "numberOfBytes": "32"
      },
      "t_array(t_bytes_storage)dyn_storage": {
        "base": "t_bytes_storage",
        "encoding": "dynamic_array",
        "label": "bytes[]",
        "numberOfBytes": "32"
      },
      "t_array(t_string_storage)dyn_storage": {
        "base": "t_string_storage",
        "encoding": "dynamic_array",
        "label": "string[]",
        "numberOfBytes": "32"
      },
      "t_array(t_uint256)dyn_storage": {
        "base": "t_uint256",
        "encoding": "dynamic_array",
        "label": "uint256[]",
        "numberOfBytes": "32"
      },
      "t_bool": {
        "encoding": "inplace",
        "label": "bool",
        "numberOfBytes": "1"
      },
      "t_bytes32": {
        "encoding": "inplace",
        "label": "bytes32",
        "numberOfBytes": "32"
      },
      "t_bytes_storage": {
        "encoding": "bytes",
        "label": "bytes",
        "numberOfBytes": "32"
      },
      "t_int128": {
        "encoding": "inplace",
        "label": "int128",
        "numberOfBytes": "16"
      },
      "t_mapping(t_address,t_struct(Receipt)6894_storage)": {
        "encoding": "mapping",
        "key": "t_address",
        "label": "mapping(address => struct IGovernorCompatibilityNFTGlobalEntry.Receipt)",
        "numberOfBytes": "32",
        "value": "t_struct(Receipt)6894_storage"
      },
      "t_mapping(t_int128,t_bytes32)": {
        "encoding": "mapping",
        "key": "t_int128",
        "label": "mapping(int128 => bytes32)",
        "numberOfBytes": "32",
        "value": "t_bytes32"
      },
      "t_mapping(t_uint256,t_string_storage)": {
        "encoding": "mapping",
        "key": "t_uint256",
        "label": "mapping(uint256 => string)",
        "numberOfBytes": "32",
        "value": "t_string_storage"
      },
      "t_mapping(t_uint256,t_struct(ProposalCore)253_storage)": {
        "encoding": "mapping",
        "key": "t_uint256",
        "label": "mapping(uint256 => struct Governor.ProposalCore)",
        "numberOfBytes": "32",
        "value": "t_struct(ProposalCore)253_storage"
      },
      "t_mapping(t_uint256,t_struct(ProposalDetails)5989_storage)": {
        "encoding": "mapping",
        "key": "t_uint256",
        "label": "mapping(uint256 => struct GovernorCompatibilityNFTGlobalEntry.ProposalDetails)",
        "numberOfBytes": "32",
        "value": "t_struct(ProposalDetails)5989_storage"
      },
      "t_mapping(t_uint256,t_uint256)": {
        "encoding": "mapping",
        "key": "t_uint256",
        "label": "mapping(uint256 => uint256)",
        "numberOfBytes": "32",
        "value": "t_uint256"
      },
      "t_mapping(t_uint256,t_uint8)": {
        "encoding": "mapping",
        "key": "t_uint256",
        "label": "mapping(uint256 => uint8)",
        "numberOfBytes": "32",
        "value": "t_uint8"
      },
      "t_string_storage": {
        "encoding": "bytes",
        "label": "string",
        "numberOfBytes": "32"
      },
      "t_struct(BlockNumber)2538_storage": {
        "encoding": "inplace",
        "label": "struct Timers.BlockNumber",
        "members": [
          {
            "astId": 2537,
            "contract": "src/NFTGovernor/NFTGovernor.sol:NFTGovernor",
            "label": "_deadline",
            "offset": 0,
            "slot": "0",
            "type": "t_uint64"
          }
        ],
        "numberOfBytes": "32"
      },
      "t_struct(Bytes32Deque)5617_storage": {
        "encoding": "inplace",
        "label": "struct DoubleEndedQueue.Bytes32Deque",
        "members": [
          {
            "astId": 5610,
            "contract": "src/NFTGovernor/NFTGovernor.sol:NFTGovernor",
            "label": "_begin",
            "offset": 0,
            "slot": "0",
            "type": "t_int128"
          },
          {
            "astId": 5612,
            "contract": "src/NFTGovernor/NFTGovernor.sol:NFTGovernor",
            "label": "_end",
            "offset": 16,
            "slot": "0",
            "type": "t_int128"
          },
          {
            "astId": 5616,
            "contract": "src/NFTGovernor/NFTGovernor.sol:NFTGovernor",
            "label": "_data",
            "offset": 0,
            "slot": "1",
            "type": "t_mapping(t_int128,t_bytes32)"
          }
        ],
        "numberOfBytes": "64"
      },
      "t_struct(Community)7010_storage": {
        "encoding": "inplace",
        "label": "struct NFTGovernor.Community",
        "members": [
          {
            "astId": 7007,
            "contract": "src/NFTGovernor/NFTGovernor.sol:NFTGovernor",
            "label": "contractAddress",
            "offset": 0,
            "slot": "0",
            "type": "t_address"
          },
          {
            "astId": 7009,
            "contract": "src/NFTGovernor/NFTGovernor.sol:NFTGovernor",
            "label": "chainId",
            "offset": 20,
            "slot": "0",
            "type": "t_uint8"
          }
        ],
        "numberOfBytes": "32"
      },
      "t_struct(ProposalCore)253_storage": {
        "encoding": "inplace",
        "label": "struct Governor.ProposalCore",
        "members": [
          {
            "astId": 245,
            "contract": "src/NFTGovernor/NFTGovernor.sol:NFTGovernor",
            "label": "voteStart",
            "offset": 0,
            "slot": "0",
            "type": "t_struct(BlockNumber)2538_storage"
          },
          {
            "astId": 248,
            "contract": "src/NFTGovernor/NFTGovernor.sol:NFTGovernor",
            "label": "voteEnd",
            "offset": 0,
            "slot": "1",
            "type": "t_struct(BlockNumber)2538_storage"
          },
          {
            "astId": 250,
            "contract": "src/NFTGovernor/NFTGovernor.sol:NFTGovernor",
            "label": "executed",
            "offset": 0,
            "slot": "2",
            "type": "t_bool"
          },
          {
            "astId": 252,
            "contract": "src/NFTGovernor/NFTGovernor.sol:NFTGovernor",
            "label": "canceled",
            "offset": 1,
            "slot": "2",
            "type": "t_bool"
          }
        ],
        "numberOfBytes": "96"
      },
      "t_struct(ProposalDetails)5989_storage": {
        "encoding": "inplace",
        "label": "struct GovernorCompatibilityNFTGlobalEntry.ProposalDetails",
        "members": [
          {
            "astId": 5959,
            "contract": "src/NFTGovernor/NFTGovernor.sol:NFTGovernor",
            "label": "proposer",
            "offset": 0,
            "slot": "0",
            "type": "t_address"
          },
          {
            "astId": 5962,
            "contract": "src/NFTGovernor/NFTGovernor.sol:NFTGovernor",
            "label": "targets",
            "offset": 0,
            "slot": "1",
            "type": "t_array(t_address)dyn_storage"
          },
          {
            "astId": 5965,
            "contract": "src/NFTGovernor/NFTGovernor.sol:NFTGovernor",
            "label": "values",
            "offset": 0,
            "slot": "2",
            "type": "t_array(t_uint256)dyn_storage"
          },
          {
            "astId": 5968,
            "contract": "src/NFTGovernor/NFTGovernor.sol:NFTGovernor",
            "label": "signatures",
            "offset": 0,
            "slot": "3",
            "type": "t_array(t_string_storage)dyn_storage"
          },
          {
            "astId": 5971,
            "contract": "src/NFTGovernor/NFTGovernor.sol:NFTGovernor",
            "label": "calldatas",
            "offset": 0,
            "slot": "4",
            "type": "t_array(t_bytes_storage)dyn_storage"
          },
          {
            "astId": 5973,
            "contract": "src/NFTGovernor/NFTGovernor.sol:NFTGovernor",
            "label": "forVotes",
            "offset": 0,
            "slot": "5",
            "type": "t_uint256"
          },
          {
            "astId": 5975,
            "contract": "src/NFTGovernor/NFTGovernor.sol:NFTGovernor",
            "label": "againstVotes",
            "offset": 0,
            "slot": "6",
            "type": "t_uint256"
          },
          {
            "astId": 5977,
            "contract": "src/NFTGovernor/NFTGovernor.sol:NFTGovernor",
            "label": "abstainVotes",
            "offset": 0,
            "slot": "7",
            "type": "t_uint256"
          },
          {
            "astId": 5982,
            "contract": "src/NFTGovernor/NFTGovernor.sol:NFTGovernor",
            "label": "receipts",
            "offset": 0,
            "slot": "8",
            "type": "t_mapping(t_address,t_struct(Receipt)6894_storage)"
          },
          {
            "astId": 5986,
            "contract": "src/NFTGovernor/NFTGovernor.sol:NFTGovernor",
            "label": "tokenVoted",
            "offset": 0,
            "slot": "9",
            "type": "t_mapping(t_uint256,t_uint8)"
          },
          {
            "astId": 5988,
            "contract": "src/NFTGovernor/NFTGovernor.sol:NFTGovernor",
            "label": "descriptionHash",
            "offset": 0,
            "slot": "10",
            "type": "t_bytes32"
          }
        ],
        "numberOfBytes": "352"
      },
      "t_struct(Receipt)6894_storage": {
        "encoding": "inplace",
        "label": "struct IGovernorCompatibilityNFTGlobalEntry.Receipt",
        "members": [
          {
            "astId": 6887,
            "contract": "src/NFTGovernor/NFTGovernor.sol:NFTGovernor",
            "label": "hasVoted",
            "offset": 0,
            "slot": "0",
            "type": "t_bool"
          },
          {
            "astId": 6889,
            "contract": "src/NFTGovernor/NFTGovernor.sol:NFTGovernor",
            "label": "support",
            "offset": 1,
            "slot": "0",
            "type": "t_uint8"
          },
          {
            "astId": 6891,
            "contract": "src/NFTGovernor/NFTGovernor.sol:NFTGovernor",
            "label": "votes",
            "offset": 2,
            "slot": "0",
            "type": "t_uint96"
          },
          {
            "astId": 6893,
            "contract": "src/NFTGovernor/NFTGovernor.sol:NFTGovernor",
            "label": "tokenId",
            "offset": 0,
            "slot": "1",
            "type": "t_uint256"
          }
        ],
        "numberOfBytes": "64"
      },
      "t_uint256": {
        "encoding": "inplace",
        "label": "uint256",
        "numberOfBytes": "32"
      },
      "t_uint64": {
        "encoding": "inplace",
        "label": "uint64",
        "numberOfBytes": "8"
      },
      "t_uint8": {
        "encoding": "inplace",
        "label": "uint8",
        "numberOfBytes": "1"
      },
      "t_uint96": {
        "encoding": "inplace",
        "label": "uint96",
        "numberOfBytes": "12"
      }
    }
  }
}